{
	"Bytes.sol": {
		"Bytes": {
			"abi": [
				{
					"inputs": [],
					"stateMutability": "nonpayable",
					"type": "constructor"
				},
				{
					"inputs": [],
					"name": "myBytes",
					"outputs": [
						{
							"internalType": "bytes",
							"name": "",
							"type": "bytes"
						}
					],
					"stateMutability": "view",
					"type": "function"
				},
				{
					"inputs": [
						{
							"internalType": "string",
							"name": "_newBytes",
							"type": "string"
						}
					],
					"name": "updateBytes",
					"outputs": [],
					"stateMutability": "nonpayable",
					"type": "function"
				}
			],
			"devdoc": {
				"kind": "dev",
				"methods": {},
				"version": 1
			},
			"evm": {
				"assembly": "    /* \"Bytes.sol\":60:308  contract Bytes{... */\n  mstore(0x40, 0x80)\n    /* \"Bytes.sol\":110:188  constructor() {... */\n  callvalue\n  dup1\n  iszero\n  tag_1\n  jumpi\n  0x00\n  dup1\n  revert\ntag_1:\n  pop\n    /* \"Bytes.sol\":145:180  abi.encodePacked(\"Hello solidity!\") */\n  add(0x20, mload(0x40))\n  tag_4\n  swap1\n  tag_5\n  jump\t// in\ntag_4:\n  mload(0x40)\n  0x20\n  dup2\n  dup4\n  sub\n  sub\n  dup2\n  mstore\n  swap1\n  0x40\n  mstore\n    /* \"Bytes.sol\":135:142  myBytes */\n  0x00\n    /* \"Bytes.sol\":135:180  myBytes = abi.encodePacked(\"Hello solidity!\") */\n  swap1\n  dup2\n  tag_6\n  swap2\n  swap1\n  tag_7\n  jump\t// in\ntag_6:\n  pop\n    /* \"Bytes.sol\":60:308  contract Bytes{... */\n  jump(tag_8)\n    /* \"#utility.yul\":7:155   */\ntag_9:\n    /* \"#utility.yul\":109:120   */\n  0x00\n    /* \"#utility.yul\":146:149   */\n  dup2\n    /* \"#utility.yul\":131:149   */\n  swap1\n  pop\n    /* \"#utility.yul\":7:155   */\n  swap3\n  swap2\n  pop\n  pop\n  jump\t// out\n    /* \"#utility.yul\":161:326   */\ntag_10:\n    /* \"#utility.yul\":301:318   */\n  0x48656c6c6f20736f6c6964697479210000000000000000000000000000000000\n    /* \"#utility.yul\":297:298   */\n  0x00\n    /* \"#utility.yul\":289:295   */\n  dup3\n    /* \"#utility.yul\":285:299   */\n  add\n    /* \"#utility.yul\":278:319   */\n  mstore\n    /* \"#utility.yul\":161:326   */\n  pop\n  jump\t// out\n    /* \"#utility.yul\":332:734   */\ntag_11:\n    /* \"#utility.yul\":492:495   */\n  0x00\n    /* \"#utility.yul\":513:598   */\n  tag_36\n    /* \"#utility.yul\":595:597   */\n  0x0f\n    /* \"#utility.yul\":590:593   */\n  dup4\n    /* \"#utility.yul\":513:598   */\n  tag_9\n  jump\t// in\ntag_36:\n    /* \"#utility.yul\":506:598   */\n  swap2\n  pop\n    /* \"#utility.yul\":607:700   */\n  tag_37\n    /* \"#utility.yul\":696:699   */\n  dup3\n    /* \"#utility.yul\":607:700   */\n  tag_10\n  jump\t// in\ntag_37:\n    /* \"#utility.yul\":725:727   */\n  0x0f\n    /* \"#utility.yul\":720:723   */\n  dup3\n    /* \"#utility.yul\":716:728   */\n  add\n    /* \"#utility.yul\":709:728   */\n  swap1\n  pop\n    /* \"#utility.yul\":332:734   */\n  swap2\n  swap1\n  pop\n  jump\t// out\n    /* \"#utility.yul\":740:1121   */\ntag_5:\n    /* \"#utility.yul\":925:928   */\n  0x00\n    /* \"#utility.yul\":947:1095   */\n  tag_39\n    /* \"#utility.yul\":1091:1094   */\n  dup3\n    /* \"#utility.yul\":947:1095   */\n  tag_11\n  jump\t// in\ntag_39:\n    /* \"#utility.yul\":940:1095   */\n  swap2\n  pop\n    /* \"#utility.yul\":1112:1115   */\n  dup2\n    /* \"#utility.yul\":1105:1115   */\n  swap1\n  pop\n    /* \"#utility.yul\":740:1121   */\n  swap2\n  swap1\n  pop\n  jump\t// out\n    /* \"#utility.yul\":1127:1225   */\ntag_12:\n    /* \"#utility.yul\":1178:1184   */\n  0x00\n    /* \"#utility.yul\":1212:1217   */\n  dup2\n    /* \"#utility.yul\":1206:1218   */\n  mload\n    /* \"#utility.yul\":1196:1218   */\n  swap1\n  pop\n    /* \"#utility.yul\":1127:1225   */\n  swap2\n  swap1\n  pop\n  jump\t// out\n    /* \"#utility.yul\":1231:1411   */\ntag_13:\n    /* \"#utility.yul\":1279:1356   */\n  0x4e487b7100000000000000000000000000000000000000000000000000000000\n    /* \"#utility.yul\":1276:1277   */\n  0x00\n    /* \"#utility.yul\":1269:1357   */\n  mstore\n    /* \"#utility.yul\":1376:1380   */\n  0x41\n    /* \"#utility.yul\":1373:1374   */\n  0x04\n    /* \"#utility.yul\":1366:1381   */\n  mstore\n    /* \"#utility.yul\":1400:1404   */\n  0x24\n    /* \"#utility.yul\":1397:1398   */\n  0x00\n    /* \"#utility.yul\":1390:1405   */\n  revert\n    /* \"#utility.yul\":1417:1597   */\ntag_14:\n    /* \"#utility.yul\":1465:1542   */\n  0x4e487b7100000000000000000000000000000000000000000000000000000000\n    /* \"#utility.yul\":1462:1463   */\n  0x00\n    /* \"#utility.yul\":1455:1543   */\n  mstore\n    /* \"#utility.yul\":1562:1566   */\n  0x22\n    /* \"#utility.yul\":1559:1560   */\n  0x04\n    /* \"#utility.yul\":1552:1567   */\n  mstore\n    /* \"#utility.yul\":1586:1590   */\n  0x24\n    /* \"#utility.yul\":1583:1584   */\n  0x00\n    /* \"#utility.yul\":1576:1591   */\n  revert\n    /* \"#utility.yul\":1603:1923   */\ntag_15:\n    /* \"#utility.yul\":1647:1653   */\n  0x00\n    /* \"#utility.yul\":1684:1685   */\n  0x02\n    /* \"#utility.yul\":1678:1682   */\n  dup3\n    /* \"#utility.yul\":1674:1686   */\n  div\n    /* \"#utility.yul\":1664:1686   */\n  swap1\n  pop\n    /* \"#utility.yul\":1731:1732   */\n  0x01\n    /* \"#utility.yul\":1725:1729   */\n  dup3\n    /* \"#utility.yul\":1721:1733   */\n  and\n    /* \"#utility.yul\":1752:1770   */\n  dup1\n    /* \"#utility.yul\":1742:1823   */\n  tag_44\n  jumpi\n    /* \"#utility.yul\":1808:1812   */\n  0x7f\n    /* \"#utility.yul\":1800:1806   */\n  dup3\n    /* \"#utility.yul\":1796:1813   */\n  and\n    /* \"#utility.yul\":1786:1813   */\n  swap2\n  pop\n    /* \"#utility.yul\":1742:1823   */\ntag_44:\n    /* \"#utility.yul\":1870:1872   */\n  0x20\n    /* \"#utility.yul\":1862:1868   */\n  dup3\n    /* \"#utility.yul\":1859:1873   */\n  lt\n    /* \"#utility.yul\":1839:1857   */\n  dup2\n    /* \"#utility.yul\":1836:1874   */\n  sub\n    /* \"#utility.yul\":1833:1917   */\n  tag_45\n  jumpi\n    /* \"#utility.yul\":1889:1907   */\n  tag_46\n  tag_14\n  jump\t// in\ntag_46:\n    /* \"#utility.yul\":1833:1917   */\ntag_45:\n    /* \"#utility.yul\":1654:1923   */\n  pop\n    /* \"#utility.yul\":1603:1923   */\n  swap2\n  swap1\n  pop\n  jump\t// out\n    /* \"#utility.yul\":1929:2069   */\ntag_16:\n    /* \"#utility.yul\":1977:1981   */\n  0x00\n    /* \"#utility.yul\":2000:2003   */\n  dup2\n    /* \"#utility.yul\":1992:2003   */\n  swap1\n  pop\n    /* \"#utility.yul\":2023:2026   */\n  dup2\n    /* \"#utility.yul\":2020:2021   */\n  0x00\n    /* \"#utility.yul\":2013:2027   */\n  mstore\n    /* \"#utility.yul\":2057:2061   */\n  0x20\n    /* \"#utility.yul\":2054:2055   */\n  0x00\n    /* \"#utility.yul\":2044:2062   */\n  keccak256\n    /* \"#utility.yul\":2036:2062   */\n  swap1\n  pop\n    /* \"#utility.yul\":1929:2069   */\n  swap2\n  swap1\n  pop\n  jump\t// out\n    /* \"#utility.yul\":2075:2168   */\ntag_17:\n    /* \"#utility.yul\":2112:2118   */\n  0x00\n    /* \"#utility.yul\":2159:2161   */\n  0x20\n    /* \"#utility.yul\":2154:2156   */\n  0x1f\n    /* \"#utility.yul\":2147:2152   */\n  dup4\n    /* \"#utility.yul\":2143:2157   */\n  add\n    /* \"#utility.yul\":2139:2162   */\n  div\n    /* \"#utility.yul\":2129:2162   */\n  swap1\n  pop\n    /* \"#utility.yul\":2075:2168   */\n  swap2\n  swap1\n  pop\n  jump\t// out\n    /* \"#utility.yul\":2174:2281   */\ntag_18:\n    /* \"#utility.yul\":2218:2226   */\n  0x00\n    /* \"#utility.yul\":2268:2273   */\n  dup3\n    /* \"#utility.yul\":2262:2266   */\n  dup3\n    /* \"#utility.yul\":2258:2274   */\n  shl\n    /* \"#utility.yul\":2237:2274   */\n  swap1\n  pop\n    /* \"#utility.yul\":2174:2281   */\n  swap3\n  swap2\n  pop\n  pop\n  jump\t// out\n    /* \"#utility.yul\":2287:2680   */\ntag_19:\n    /* \"#utility.yul\":2356:2362   */\n  0x00\n    /* \"#utility.yul\":2406:2407   */\n  0x08\n    /* \"#utility.yul\":2394:2404   */\n  dup4\n    /* \"#utility.yul\":2390:2408   */\n  mul\n    /* \"#utility.yul\":2429:2526   */\n  tag_51\n    /* \"#utility.yul\":2459:2525   */\n  0xffffffffffffffffffffffffffffffffffffffffffffffffffffffffffffffff\n    /* \"#utility.yul\":2448:2457   */\n  dup3\n    /* \"#utility.yul\":2429:2526   */\n  tag_18\n  jump\t// in\ntag_51:\n    /* \"#utility.yul\":2547:2586   */\n  tag_52\n    /* \"#utility.yul\":2577:2585   */\n  dup7\n    /* \"#utility.yul\":2566:2575   */\n  dup4\n    /* \"#utility.yul\":2547:2586   */\n  tag_18\n  jump\t// in\ntag_52:\n    /* \"#utility.yul\":2535:2586   */\n  swap6\n  pop\n    /* \"#utility.yul\":2619:2623   */\n  dup1\n    /* \"#utility.yul\":2615:2624   */\n  not\n    /* \"#utility.yul\":2608:2613   */\n  dup5\n    /* \"#utility.yul\":2604:2625   */\n  and\n    /* \"#utility.yul\":2595:2625   */\n  swap4\n  pop\n    /* \"#utility.yul\":2668:2672   */\n  dup1\n    /* \"#utility.yul\":2658:2666   */\n  dup7\n    /* \"#utility.yul\":2654:2673   */\n  and\n    /* \"#utility.yul\":2647:2652   */\n  dup5\n    /* \"#utility.yul\":2644:2674   */\n  or\n    /* \"#utility.yul\":2634:2674   */\n  swap3\n  pop\n    /* \"#utility.yul\":2363:2680   */\n  pop\n  pop\n    /* \"#utility.yul\":2287:2680   */\n  swap4\n  swap3\n  pop\n  pop\n  pop\n  jump\t// out\n    /* \"#utility.yul\":2686:2763   */\ntag_20:\n    /* \"#utility.yul\":2723:2730   */\n  0x00\n    /* \"#utility.yul\":2752:2757   */\n  dup2\n    /* \"#utility.yul\":2741:2757   */\n  swap1\n  pop\n    /* \"#utility.yul\":2686:2763   */\n  swap2\n  swap1\n  pop\n  jump\t// out\n    /* \"#utility.yul\":2769:2829   */\ntag_21:\n    /* \"#utility.yul\":2797:2800   */\n  0x00\n    /* \"#utility.yul\":2818:2823   */\n  dup2\n    /* \"#utility.yul\":2811:2823   */\n  swap1\n  pop\n    /* \"#utility.yul\":2769:2829   */\n  swap2\n  swap1\n  pop\n  jump\t// out\n    /* \"#utility.yul\":2835:2977   */\ntag_22:\n    /* \"#utility.yul\":2885:2894   */\n  0x00\n    /* \"#utility.yul\":2918:2971   */\n  tag_56\n    /* \"#utility.yul\":2936:2970   */\n  tag_57\n    /* \"#utility.yul\":2945:2969   */\n  tag_58\n    /* \"#utility.yul\":2963:2968   */\n  dup5\n    /* \"#utility.yul\":2945:2969   */\n  tag_20\n  jump\t// in\ntag_58:\n    /* \"#utility.yul\":2936:2970   */\n  tag_21\n  jump\t// in\ntag_57:\n    /* \"#utility.yul\":2918:2971   */\n  tag_20\n  jump\t// in\ntag_56:\n    /* \"#utility.yul\":2905:2971   */\n  swap1\n  pop\n    /* \"#utility.yul\":2835:2977   */\n  swap2\n  swap1\n  pop\n  jump\t// out\n    /* \"#utility.yul\":2983:3058   */\ntag_23:\n    /* \"#utility.yul\":3026:3029   */\n  0x00\n    /* \"#utility.yul\":3047:3052   */\n  dup2\n    /* \"#utility.yul\":3040:3052   */\n  swap1\n  pop\n    /* \"#utility.yul\":2983:3058   */\n  swap2\n  swap1\n  pop\n  jump\t// out\n    /* \"#utility.yul\":3064:3333   */\ntag_24:\n    /* \"#utility.yul\":3174:3213   */\n  tag_61\n    /* \"#utility.yul\":3205:3212   */\n  dup4\n    /* \"#utility.yul\":3174:3213   */\n  tag_22\n  jump\t// in\ntag_61:\n    /* \"#utility.yul\":3235:3326   */\n  tag_62\n    /* \"#utility.yul\":3284:3325   */\n  tag_63\n    /* \"#utility.yul\":3308:3324   */\n  dup3\n    /* \"#utility.yul\":3284:3325   */\n  tag_23\n  jump\t// in\ntag_63:\n    /* \"#utility.yul\":3276:3282   */\n  dup5\n    /* \"#utility.yul\":3269:3273   */\n  dup5\n    /* \"#utility.yul\":3263:3274   */\n  sload\n    /* \"#utility.yul\":3235:3326   */\n  tag_19\n  jump\t// in\ntag_62:\n    /* \"#utility.yul\":3229:3233   */\n  dup3\n    /* \"#utility.yul\":3222:3327   */\n  sstore\n    /* \"#utility.yul\":3140:3333   */\n  pop\n    /* \"#utility.yul\":3064:3333   */\n  pop\n  pop\n  pop\n  jump\t// out\n    /* \"#utility.yul\":3339:3412   */\ntag_25:\n    /* \"#utility.yul\":3384:3387   */\n  0x00\n    /* \"#utility.yul\":3339:3412   */\n  swap1\n  jump\t// out\n    /* \"#utility.yul\":3418:3607   */\ntag_26:\n    /* \"#utility.yul\":3495:3527   */\n  tag_66\n  tag_25\n  jump\t// in\ntag_66:\n    /* \"#utility.yul\":3536:3601   */\n  tag_67\n    /* \"#utility.yul\":3594:3600   */\n  dup2\n    /* \"#utility.yul\":3586:3592   */\n  dup5\n    /* \"#utility.yul\":3580:3584   */\n  dup5\n    /* \"#utility.yul\":3536:3601   */\n  tag_24\n  jump\t// in\ntag_67:\n    /* \"#utility.yul\":3471:3607   */\n  pop\n    /* \"#utility.yul\":3418:3607   */\n  pop\n  pop\n  jump\t// out\n    /* \"#utility.yul\":3613:3799   */\ntag_27:\n    /* \"#utility.yul\":3673:3793   */\ntag_69:\n    /* \"#utility.yul\":3690:3693   */\n  dup2\n    /* \"#utility.yul\":3683:3688   */\n  dup2\n    /* \"#utility.yul\":3680:3694   */\n  lt\n    /* \"#utility.yul\":3673:3793   */\n  iszero\n  tag_71\n  jumpi\n    /* \"#utility.yul\":3744:3783   */\n  tag_72\n    /* \"#utility.yul\":3781:3782   */\n  0x00\n    /* \"#utility.yul\":3774:3779   */\n  dup3\n    /* \"#utility.yul\":3744:3783   */\n  tag_26\n  jump\t// in\ntag_72:\n    /* \"#utility.yul\":3717:3718   */\n  0x01\n    /* \"#utility.yul\":3710:3715   */\n  dup2\n    /* \"#utility.yul\":3706:3719   */\n  add\n    /* \"#utility.yul\":3697:3719   */\n  swap1\n  pop\n    /* \"#utility.yul\":3673:3793   */\n  jump(tag_69)\ntag_71:\n    /* \"#utility.yul\":3613:3799   */\n  pop\n  pop\n  jump\t// out\n    /* \"#utility.yul\":3805:4346   */\ntag_28:\n    /* \"#utility.yul\":3905:3907   */\n  0x1f\n    /* \"#utility.yul\":3900:3903   */\n  dup3\n    /* \"#utility.yul\":3897:3908   */\n  gt\n    /* \"#utility.yul\":3894:4339   */\n  iszero\n  tag_74\n  jumpi\n    /* \"#utility.yul\":3939:3976   */\n  tag_75\n    /* \"#utility.yul\":3970:3975   */\n  dup2\n    /* \"#utility.yul\":3939:3976   */\n  tag_16\n  jump\t// in\ntag_75:\n    /* \"#utility.yul\":4022:4051   */\n  tag_76\n    /* \"#utility.yul\":4040:4050   */\n  dup5\n    /* \"#utility.yul\":4022:4051   */\n  tag_17\n  jump\t// in\ntag_76:\n    /* \"#utility.yul\":4012:4020   */\n  dup2\n    /* \"#utility.yul\":4008:4052   */\n  add\n    /* \"#utility.yul\":4205:4207   */\n  0x20\n    /* \"#utility.yul\":4193:4203   */\n  dup6\n    /* \"#utility.yul\":4190:4208   */\n  lt\n    /* \"#utility.yul\":4187:4236   */\n  iszero\n  tag_77\n  jumpi\n    /* \"#utility.yul\":4226:4234   */\n  dup2\n    /* \"#utility.yul\":4211:4234   */\n  swap1\n  pop\n    /* \"#utility.yul\":4187:4236   */\ntag_77:\n    /* \"#utility.yul\":4249:4329   */\n  tag_78\n    /* \"#utility.yul\":4305:4327   */\n  tag_79\n    /* \"#utility.yul\":4323:4326   */\n  dup6\n    /* \"#utility.yul\":4305:4327   */\n  tag_17\n  jump\t// in\ntag_79:\n    /* \"#utility.yul\":4295:4303   */\n  dup4\n    /* \"#utility.yul\":4291:4328   */\n  add\n    /* \"#utility.yul\":4278:4289   */\n  dup3\n    /* \"#utility.yul\":4249:4329   */\n  tag_27\n  jump\t// in\ntag_78:\n    /* \"#utility.yul\":3909:4339   */\n  pop\n  pop\n    /* \"#utility.yul\":3894:4339   */\ntag_74:\n    /* \"#utility.yul\":3805:4346   */\n  pop\n  pop\n  pop\n  jump\t// out\n    /* \"#utility.yul\":4352:4469   */\ntag_29:\n    /* \"#utility.yul\":4406:4414   */\n  0x00\n    /* \"#utility.yul\":4456:4461   */\n  dup3\n    /* \"#utility.yul\":4450:4454   */\n  dup3\n    /* \"#utility.yul\":4446:4462   */\n  shr\n    /* \"#utility.yul\":4425:4462   */\n  swap1\n  pop\n    /* \"#utility.yul\":4352:4469   */\n  swap3\n  swap2\n  pop\n  pop\n  jump\t// out\n    /* \"#utility.yul\":4475:4644   */\ntag_30:\n    /* \"#utility.yul\":4519:4525   */\n  0x00\n    /* \"#utility.yul\":4552:4603   */\n  tag_82\n    /* \"#utility.yul\":4600:4601   */\n  0x00\n    /* \"#utility.yul\":4596:4602   */\n  not\n    /* \"#utility.yul\":4588:4593   */\n  dup5\n    /* \"#utility.yul\":4585:4586   */\n  0x08\n    /* \"#utility.yul\":4581:4594   */\n  mul\n    /* \"#utility.yul\":4552:4603   */\n  tag_29\n  jump\t// in\ntag_82:\n    /* \"#utility.yul\":4548:4604   */\n  not\n    /* \"#utility.yul\":4633:4637   */\n  dup1\n    /* \"#utility.yul\":4627:4631   */\n  dup4\n    /* \"#utility.yul\":4623:4638   */\n  and\n    /* \"#utility.yul\":4613:4638   */\n  swap2\n  pop\n    /* \"#utility.yul\":4526:4644   */\n  pop\n    /* \"#utility.yul\":4475:4644   */\n  swap3\n  swap2\n  pop\n  pop\n  jump\t// out\n    /* \"#utility.yul\":4649:4944   */\ntag_31:\n    /* \"#utility.yul\":4725:4729   */\n  0x00\n    /* \"#utility.yul\":4871:4900   */\n  tag_84\n    /* \"#utility.yul\":4896:4899   */\n  dup4\n    /* \"#utility.yul\":4890:4894   */\n  dup4\n    /* \"#utility.yul\":4871:4900   */\n  tag_30\n  jump\t// in\ntag_84:\n    /* \"#utility.yul\":4863:4900   */\n  swap2\n  pop\n    /* \"#utility.yul\":4933:4936   */\n  dup3\n    /* \"#utility.yul\":4930:4931   */\n  0x02\n    /* \"#utility.yul\":4926:4937   */\n  mul\n    /* \"#utility.yul\":4920:4924   */\n  dup3\n    /* \"#utility.yul\":4917:4938   */\n  or\n    /* \"#utility.yul\":4909:4938   */\n  swap1\n  pop\n    /* \"#utility.yul\":4649:4944   */\n  swap3\n  swap2\n  pop\n  pop\n  jump\t// out\n    /* \"#utility.yul\":4949:6339   */\ntag_7:\n    /* \"#utility.yul\":5064:5100   */\n  tag_86\n    /* \"#utility.yul\":5096:5099   */\n  dup3\n    /* \"#utility.yul\":5064:5100   */\n  tag_12\n  jump\t// in\ntag_86:\n    /* \"#utility.yul\":5165:5183   */\n  0xffffffffffffffff\n    /* \"#utility.yul\":5157:5163   */\n  dup2\n    /* \"#utility.yul\":5154:5184   */\n  gt\n    /* \"#utility.yul\":5151:5207   */\n  iszero\n  tag_87\n  jumpi\n    /* \"#utility.yul\":5187:5205   */\n  tag_88\n  tag_13\n  jump\t// in\ntag_88:\n    /* \"#utility.yul\":5151:5207   */\ntag_87:\n    /* \"#utility.yul\":5231:5269   */\n  tag_89\n    /* \"#utility.yul\":5263:5267   */\n  dup3\n    /* \"#utility.yul\":5257:5268   */\n  sload\n    /* \"#utility.yul\":5231:5269   */\n  tag_15\n  jump\t// in\ntag_89:\n    /* \"#utility.yul\":5316:5382   */\n  tag_90\n    /* \"#utility.yul\":5375:5381   */\n  dup3\n    /* \"#utility.yul\":5367:5373   */\n  dup3\n    /* \"#utility.yul\":5361:5365   */\n  dup6\n    /* \"#utility.yul\":5316:5382   */\n  tag_28\n  jump\t// in\ntag_90:\n    /* \"#utility.yul\":5409:5410   */\n  0x00\n    /* \"#utility.yul\":5433:5437   */\n  0x20\n    /* \"#utility.yul\":5420:5437   */\n  swap1\n  pop\n    /* \"#utility.yul\":5465:5467   */\n  0x1f\n    /* \"#utility.yul\":5457:5463   */\n  dup4\n    /* \"#utility.yul\":5454:5468   */\n  gt\n    /* \"#utility.yul\":5482:5483   */\n  0x01\n    /* \"#utility.yul\":5477:6094   */\n  dup2\n  eq\n  tag_92\n  jumpi\n    /* \"#utility.yul\":6138:6139   */\n  0x00\n    /* \"#utility.yul\":6155:6161   */\n  dup5\n    /* \"#utility.yul\":6152:6229   */\n  iszero\n  tag_93\n  jumpi\n    /* \"#utility.yul\":6204:6213   */\n  dup3\n    /* \"#utility.yul\":6199:6202   */\n  dup8\n    /* \"#utility.yul\":6195:6214   */\n  add\n    /* \"#utility.yul\":6189:6215   */\n  mload\n    /* \"#utility.yul\":6180:6215   */\n  swap1\n  pop\n    /* \"#utility.yul\":6152:6229   */\ntag_93:\n    /* \"#utility.yul\":6255:6322   */\n  tag_94\n    /* \"#utility.yul\":6315:6321   */\n  dup6\n    /* \"#utility.yul\":6308:6313   */\n  dup3\n    /* \"#utility.yul\":6255:6322   */\n  tag_31\n  jump\t// in\ntag_94:\n    /* \"#utility.yul\":6249:6253   */\n  dup7\n    /* \"#utility.yul\":6242:6323   */\n  sstore\n    /* \"#utility.yul\":6111:6333   */\n  pop\n    /* \"#utility.yul\":5447:6333   */\n  jump(tag_91)\n    /* \"#utility.yul\":5477:6094   */\ntag_92:\n    /* \"#utility.yul\":5529:5533   */\n  0x1f\n    /* \"#utility.yul\":5525:5534   */\n  not\n    /* \"#utility.yul\":5517:5523   */\n  dup5\n    /* \"#utility.yul\":5513:5535   */\n  and\n    /* \"#utility.yul\":5563:5599   */\n  tag_95\n    /* \"#utility.yul\":5594:5598   */\n  dup7\n    /* \"#utility.yul\":5563:5599   */\n  tag_16\n  jump\t// in\ntag_95:\n    /* \"#utility.yul\":5621:5622   */\n  0x00\n    /* \"#utility.yul\":5635:5843   */\ntag_96:\n    /* \"#utility.yul\":5649:5656   */\n  dup3\n    /* \"#utility.yul\":5646:5647   */\n  dup2\n    /* \"#utility.yul\":5643:5657   */\n  lt\n    /* \"#utility.yul\":5635:5843   */\n  iszero\n  tag_98\n  jumpi\n    /* \"#utility.yul\":5728:5737   */\n  dup5\n    /* \"#utility.yul\":5723:5726   */\n  dup10\n    /* \"#utility.yul\":5719:5738   */\n  add\n    /* \"#utility.yul\":5713:5739   */\n  mload\n    /* \"#utility.yul\":5705:5711   */\n  dup3\n    /* \"#utility.yul\":5698:5740   */\n  sstore\n    /* \"#utility.yul\":5779:5780   */\n  0x01\n    /* \"#utility.yul\":5771:5777   */\n  dup3\n    /* \"#utility.yul\":5767:5781   */\n  add\n    /* \"#utility.yul\":5757:5781   */\n  swap2\n  pop\n    /* \"#utility.yul\":5826:5828   */\n  0x20\n    /* \"#utility.yul\":5815:5824   */\n  dup6\n    /* \"#utility.yul\":5811:5829   */\n  add\n    /* \"#utility.yul\":5798:5829   */\n  swap5\n  pop\n    /* \"#utility.yul\":5672:5676   */\n  0x20\n    /* \"#utility.yul\":5669:5670   */\n  dup2\n    /* \"#utility.yul\":5665:5677   */\n  add\n    /* \"#utility.yul\":5660:5677   */\n  swap1\n  pop\n    /* \"#utility.yul\":5635:5843   */\n  jump(tag_96)\ntag_98:\n    /* \"#utility.yul\":5871:5877   */\n  dup7\n    /* \"#utility.yul\":5862:5869   */\n  dup4\n    /* \"#utility.yul\":5859:5878   */\n  lt\n    /* \"#utility.yul\":5856:6035   */\n  iszero\n  tag_99\n  jumpi\n    /* \"#utility.yul\":5929:5938   */\n  dup5\n    /* \"#utility.yul\":5924:5927   */\n  dup10\n    /* \"#utility.yul\":5920:5939   */\n  add\n    /* \"#utility.yul\":5914:5940   */\n  mload\n    /* \"#utility.yul\":5972:6020   */\n  tag_100\n    /* \"#utility.yul\":6014:6018   */\n  0x1f\n    /* \"#utility.yul\":6006:6012   */\n  dup10\n    /* \"#utility.yul\":6002:6019   */\n  and\n    /* \"#utility.yul\":5991:6000   */\n  dup3\n    /* \"#utility.yul\":5972:6020   */\n  tag_30\n  jump\t// in\ntag_100:\n    /* \"#utility.yul\":5964:5970   */\n  dup4\n    /* \"#utility.yul\":5957:6021   */\n  sstore\n    /* \"#utility.yul\":5879:6035   */\n  pop\n    /* \"#utility.yul\":5856:6035   */\ntag_99:\n    /* \"#utility.yul\":6081:6082   */\n  0x01\n    /* \"#utility.yul\":6077:6078   */\n  0x02\n    /* \"#utility.yul\":6069:6075   */\n  dup9\n    /* \"#utility.yul\":6065:6079   */\n  mul\n    /* \"#utility.yul\":6061:6083   */\n  add\n    /* \"#utility.yul\":6055:6059   */\n  dup9\n    /* \"#utility.yul\":6048:6084   */\n  sstore\n    /* \"#utility.yul\":5484:6094   */\n  pop\n  pop\n  pop\n    /* \"#utility.yul\":5447:6333   */\ntag_91:\n  pop\n    /* \"#utility.yul\":5039:6339   */\n  pop\n  pop\n  pop\n    /* \"#utility.yul\":4949:6339   */\n  pop\n  pop\n  jump\t// out\n    /* \"Bytes.sol\":60:308  contract Bytes{... */\ntag_8:\n  dataSize(sub_0)\n  dup1\n  dataOffset(sub_0)\n  0x00\n  codecopy\n  0x00\n  return\nstop\n\nsub_0: assembly {\n        /* \"Bytes.sol\":60:308  contract Bytes{... */\n      mstore(0x40, 0x80)\n      callvalue\n      dup1\n      iszero\n      tag_1\n      jumpi\n      0x00\n      dup1\n      revert\n    tag_1:\n      pop\n      jumpi(tag_2, lt(calldatasize, 0x04))\n      shr(0xe0, calldataload(0x00))\n      dup1\n      0x31aa4be2\n      eq\n      tag_3\n      jumpi\n      dup1\n      0x712f4602\n      eq\n      tag_4\n      jumpi\n    tag_2:\n      0x00\n      dup1\n      revert\n        /* \"Bytes.sol\":196:305  function updateBytes(string memory _newBytes) public {... */\n    tag_3:\n      tag_5\n      0x04\n      dup1\n      calldatasize\n      sub\n      dup2\n      add\n      swap1\n      tag_6\n      swap2\n      swap1\n      tag_7\n      jump\t// in\n    tag_6:\n      tag_8\n      jump\t// in\n    tag_5:\n      stop\n        /* \"Bytes.sol\":81:101  bytes public myBytes */\n    tag_4:\n      tag_9\n      tag_10\n      jump\t// in\n    tag_9:\n      mload(0x40)\n      tag_11\n      swap2\n      swap1\n      tag_12\n      jump\t// in\n    tag_11:\n      mload(0x40)\n      dup1\n      swap2\n      sub\n      swap1\n      return\n        /* \"Bytes.sol\":196:305  function updateBytes(string memory _newBytes) public {... */\n    tag_8:\n        /* \"Bytes.sol\":287:296  _newBytes */\n      dup1\n        /* \"Bytes.sol\":270:297  abi.encodePacked(_newBytes) */\n      add(0x20, mload(0x40))\n      tag_14\n      swap2\n      swap1\n      tag_15\n      jump\t// in\n    tag_14:\n      mload(0x40)\n      0x20\n      dup2\n      dup4\n      sub\n      sub\n      dup2\n      mstore\n      swap1\n      0x40\n      mstore\n        /* \"Bytes.sol\":260:267  myBytes */\n      0x00\n        /* \"Bytes.sol\":260:297  myBytes = abi.encodePacked(_newBytes) */\n      swap1\n      dup2\n      tag_16\n      swap2\n      swap1\n      tag_17\n      jump\t// in\n    tag_16:\n      pop\n        /* \"Bytes.sol\":196:305  function updateBytes(string memory _newBytes) public {... */\n      pop\n      jump\t// out\n        /* \"Bytes.sol\":81:101  bytes public myBytes */\n    tag_10:\n      0x00\n      dup1\n      sload\n      tag_18\n      swap1\n      tag_19\n      jump\t// in\n    tag_18:\n      dup1\n      0x1f\n      add\n      0x20\n      dup1\n      swap2\n      div\n      mul\n      0x20\n      add\n      mload(0x40)\n      swap1\n      dup2\n      add\n      0x40\n      mstore\n      dup1\n      swap3\n      swap2\n      swap1\n      dup2\n      dup2\n      mstore\n      0x20\n      add\n      dup3\n      dup1\n      sload\n      tag_20\n      swap1\n      tag_19\n      jump\t// in\n    tag_20:\n      dup1\n      iszero\n      tag_21\n      jumpi\n      dup1\n      0x1f\n      lt\n      tag_22\n      jumpi\n      0x0100\n      dup1\n      dup4\n      sload\n      div\n      mul\n      dup4\n      mstore\n      swap2\n      0x20\n      add\n      swap2\n      jump(tag_21)\n    tag_22:\n      dup3\n      add\n      swap2\n      swap1\n      0x00\n      mstore\n      keccak256(0x00, 0x20)\n      swap1\n    tag_23:\n      dup2\n      sload\n      dup2\n      mstore\n      swap1\n      0x01\n      add\n      swap1\n      0x20\n      add\n      dup1\n      dup4\n      gt\n      tag_23\n      jumpi\n      dup3\n      swap1\n      sub\n      0x1f\n      and\n      dup3\n      add\n      swap2\n    tag_21:\n      pop\n      pop\n      pop\n      pop\n      pop\n      dup2\n      jump\t// out\n        /* \"#utility.yul\":7:82   */\n    tag_24:\n        /* \"#utility.yul\":40:46   */\n      0x00\n        /* \"#utility.yul\":73:75   */\n      0x40\n        /* \"#utility.yul\":67:76   */\n      mload\n        /* \"#utility.yul\":57:76   */\n      swap1\n      pop\n        /* \"#utility.yul\":7:82   */\n      swap1\n      jump\t// out\n        /* \"#utility.yul\":88:205   */\n    tag_25:\n        /* \"#utility.yul\":197:198   */\n      0x00\n        /* \"#utility.yul\":194:195   */\n      dup1\n        /* \"#utility.yul\":187:199   */\n      revert\n        /* \"#utility.yul\":211:328   */\n    tag_26:\n        /* \"#utility.yul\":320:321   */\n      0x00\n        /* \"#utility.yul\":317:318   */\n      dup1\n        /* \"#utility.yul\":310:322   */\n      revert\n        /* \"#utility.yul\":334:451   */\n    tag_27:\n        /* \"#utility.yul\":443:444   */\n      0x00\n        /* \"#utility.yul\":440:441   */\n      dup1\n        /* \"#utility.yul\":433:445   */\n      revert\n        /* \"#utility.yul\":457:574   */\n    tag_28:\n        /* \"#utility.yul\":566:567   */\n      0x00\n        /* \"#utility.yul\":563:564   */\n      dup1\n        /* \"#utility.yul\":556:568   */\n      revert\n        /* \"#utility.yul\":580:682   */\n    tag_29:\n        /* \"#utility.yul\":621:627   */\n      0x00\n        /* \"#utility.yul\":672:674   */\n      0x1f\n        /* \"#utility.yul\":668:675   */\n      not\n        /* \"#utility.yul\":663:665   */\n      0x1f\n        /* \"#utility.yul\":656:661   */\n      dup4\n        /* \"#utility.yul\":652:666   */\n      add\n        /* \"#utility.yul\":648:676   */\n      and\n        /* \"#utility.yul\":638:676   */\n      swap1\n      pop\n        /* \"#utility.yul\":580:682   */\n      swap2\n      swap1\n      pop\n      jump\t// out\n        /* \"#utility.yul\":688:868   */\n    tag_30:\n        /* \"#utility.yul\":736:813   */\n      0x4e487b7100000000000000000000000000000000000000000000000000000000\n        /* \"#utility.yul\":733:734   */\n      0x00\n        /* \"#utility.yul\":726:814   */\n      mstore\n        /* \"#utility.yul\":833:837   */\n      0x41\n        /* \"#utility.yul\":830:831   */\n      0x04\n        /* \"#utility.yul\":823:838   */\n      mstore\n        /* \"#utility.yul\":857:861   */\n      0x24\n        /* \"#utility.yul\":854:855   */\n      0x00\n        /* \"#utility.yul\":847:862   */\n      revert\n        /* \"#utility.yul\":874:1155   */\n    tag_31:\n        /* \"#utility.yul\":957:984   */\n      tag_70\n        /* \"#utility.yul\":979:983   */\n      dup3\n        /* \"#utility.yul\":957:984   */\n      tag_29\n      jump\t// in\n    tag_70:\n        /* \"#utility.yul\":949:955   */\n      dup2\n        /* \"#utility.yul\":945:985   */\n      add\n        /* \"#utility.yul\":1087:1093   */\n      dup2\n        /* \"#utility.yul\":1075:1085   */\n      dup2\n        /* \"#utility.yul\":1072:1094   */\n      lt\n        /* \"#utility.yul\":1051:1069   */\n      0xffffffffffffffff\n        /* \"#utility.yul\":1039:1049   */\n      dup3\n        /* \"#utility.yul\":1036:1070   */\n      gt\n        /* \"#utility.yul\":1033:1095   */\n      or\n        /* \"#utility.yul\":1030:1118   */\n      iszero\n      tag_71\n      jumpi\n        /* \"#utility.yul\":1098:1116   */\n      tag_72\n      tag_30\n      jump\t// in\n    tag_72:\n        /* \"#utility.yul\":1030:1118   */\n    tag_71:\n        /* \"#utility.yul\":1138:1148   */\n      dup1\n        /* \"#utility.yul\":1134:1136   */\n      0x40\n        /* \"#utility.yul\":1127:1149   */\n      mstore\n        /* \"#utility.yul\":917:1155   */\n      pop\n        /* \"#utility.yul\":874:1155   */\n      pop\n      pop\n      jump\t// out\n        /* \"#utility.yul\":1161:1290   */\n    tag_32:\n        /* \"#utility.yul\":1195:1201   */\n      0x00\n        /* \"#utility.yul\":1222:1242   */\n      tag_74\n      tag_24\n      jump\t// in\n    tag_74:\n        /* \"#utility.yul\":1212:1242   */\n      swap1\n      pop\n        /* \"#utility.yul\":1251:1284   */\n      tag_75\n        /* \"#utility.yul\":1279:1283   */\n      dup3\n        /* \"#utility.yul\":1271:1277   */\n      dup3\n        /* \"#utility.yul\":1251:1284   */\n      tag_31\n      jump\t// in\n    tag_75:\n        /* \"#utility.yul\":1161:1290   */\n      swap2\n      swap1\n      pop\n      jump\t// out\n        /* \"#utility.yul\":1296:1604   */\n    tag_33:\n        /* \"#utility.yul\":1358:1362   */\n      0x00\n        /* \"#utility.yul\":1448:1466   */\n      0xffffffffffffffff\n        /* \"#utility.yul\":1440:1446   */\n      dup3\n        /* \"#utility.yul\":1437:1467   */\n      gt\n        /* \"#utility.yul\":1434:1490   */\n      iszero\n      tag_77\n      jumpi\n        /* \"#utility.yul\":1470:1488   */\n      tag_78\n      tag_30\n      jump\t// in\n    tag_78:\n        /* \"#utility.yul\":1434:1490   */\n    tag_77:\n        /* \"#utility.yul\":1508:1537   */\n      tag_79\n        /* \"#utility.yul\":1530:1536   */\n      dup3\n        /* \"#utility.yul\":1508:1537   */\n      tag_29\n      jump\t// in\n    tag_79:\n        /* \"#utility.yul\":1500:1537   */\n      swap1\n      pop\n        /* \"#utility.yul\":1592:1596   */\n      0x20\n        /* \"#utility.yul\":1586:1590   */\n      dup2\n        /* \"#utility.yul\":1582:1597   */\n      add\n        /* \"#utility.yul\":1574:1597   */\n      swap1\n      pop\n        /* \"#utility.yul\":1296:1604   */\n      swap2\n      swap1\n      pop\n      jump\t// out\n        /* \"#utility.yul\":1610:1756   */\n    tag_34:\n        /* \"#utility.yul\":1707:1713   */\n      dup3\n        /* \"#utility.yul\":1702:1705   */\n      dup2\n        /* \"#utility.yul\":1697:1700   */\n      dup4\n        /* \"#utility.yul\":1684:1714   */\n      calldatacopy\n        /* \"#utility.yul\":1748:1749   */\n      0x00\n        /* \"#utility.yul\":1739:1745   */\n      dup4\n        /* \"#utility.yul\":1734:1737   */\n      dup4\n        /* \"#utility.yul\":1730:1746   */\n      add\n        /* \"#utility.yul\":1723:1750   */\n      mstore\n        /* \"#utility.yul\":1610:1756   */\n      pop\n      pop\n      pop\n      jump\t// out\n        /* \"#utility.yul\":1762:2187   */\n    tag_35:\n        /* \"#utility.yul\":1840:1845   */\n      0x00\n        /* \"#utility.yul\":1865:1931   */\n      tag_82\n        /* \"#utility.yul\":1881:1930   */\n      tag_83\n        /* \"#utility.yul\":1923:1929   */\n      dup5\n        /* \"#utility.yul\":1881:1930   */\n      tag_33\n      jump\t// in\n    tag_83:\n        /* \"#utility.yul\":1865:1931   */\n      tag_32\n      jump\t// in\n    tag_82:\n        /* \"#utility.yul\":1856:1931   */\n      swap1\n      pop\n        /* \"#utility.yul\":1954:1960   */\n      dup3\n        /* \"#utility.yul\":1947:1952   */\n      dup2\n        /* \"#utility.yul\":1940:1961   */\n      mstore\n        /* \"#utility.yul\":1992:1996   */\n      0x20\n        /* \"#utility.yul\":1985:1990   */\n      dup2\n        /* \"#utility.yul\":1981:1997   */\n      add\n        /* \"#utility.yul\":2030:2033   */\n      dup5\n        /* \"#utility.yul\":2021:2027   */\n      dup5\n        /* \"#utility.yul\":2016:2019   */\n      dup5\n        /* \"#utility.yul\":2012:2028   */\n      add\n        /* \"#utility.yul\":2009:2034   */\n      gt\n        /* \"#utility.yul\":2006:2118   */\n      iszero\n      tag_84\n      jumpi\n        /* \"#utility.yul\":2037:2116   */\n      tag_85\n      tag_28\n      jump\t// in\n    tag_85:\n        /* \"#utility.yul\":2006:2118   */\n    tag_84:\n        /* \"#utility.yul\":2127:2181   */\n      tag_86\n        /* \"#utility.yul\":2174:2180   */\n      dup5\n        /* \"#utility.yul\":2169:2172   */\n      dup3\n        /* \"#utility.yul\":2164:2167   */\n      dup6\n        /* \"#utility.yul\":2127:2181   */\n      tag_34\n      jump\t// in\n    tag_86:\n        /* \"#utility.yul\":1846:2187   */\n      pop\n        /* \"#utility.yul\":1762:2187   */\n      swap4\n      swap3\n      pop\n      pop\n      pop\n      jump\t// out\n        /* \"#utility.yul\":2207:2547   */\n    tag_36:\n        /* \"#utility.yul\":2263:2268   */\n      0x00\n        /* \"#utility.yul\":2312:2315   */\n      dup3\n        /* \"#utility.yul\":2305:2309   */\n      0x1f\n        /* \"#utility.yul\":2297:2303   */\n      dup4\n        /* \"#utility.yul\":2293:2310   */\n      add\n        /* \"#utility.yul\":2289:2316   */\n      slt\n        /* \"#utility.yul\":2279:2401   */\n      tag_88\n      jumpi\n        /* \"#utility.yul\":2320:2399   */\n      tag_89\n      tag_27\n      jump\t// in\n    tag_89:\n        /* \"#utility.yul\":2279:2401   */\n    tag_88:\n        /* \"#utility.yul\":2437:2443   */\n      dup2\n        /* \"#utility.yul\":2424:2444   */\n      calldataload\n        /* \"#utility.yul\":2462:2541   */\n      tag_90\n        /* \"#utility.yul\":2537:2540   */\n      dup5\n        /* \"#utility.yul\":2529:2535   */\n      dup3\n        /* \"#utility.yul\":2522:2526   */\n      0x20\n        /* \"#utility.yul\":2514:2520   */\n      dup7\n        /* \"#utility.yul\":2510:2527   */\n      add\n        /* \"#utility.yul\":2462:2541   */\n      tag_35\n      jump\t// in\n    tag_90:\n        /* \"#utility.yul\":2453:2541   */\n      swap2\n      pop\n        /* \"#utility.yul\":2269:2547   */\n      pop\n        /* \"#utility.yul\":2207:2547   */\n      swap3\n      swap2\n      pop\n      pop\n      jump\t// out\n        /* \"#utility.yul\":2553:3062   */\n    tag_7:\n        /* \"#utility.yul\":2622:2628   */\n      0x00\n        /* \"#utility.yul\":2671:2673   */\n      0x20\n        /* \"#utility.yul\":2659:2668   */\n      dup3\n        /* \"#utility.yul\":2650:2657   */\n      dup5\n        /* \"#utility.yul\":2646:2669   */\n      sub\n        /* \"#utility.yul\":2642:2674   */\n      slt\n        /* \"#utility.yul\":2639:2758   */\n      iszero\n      tag_92\n      jumpi\n        /* \"#utility.yul\":2677:2756   */\n      tag_93\n      tag_25\n      jump\t// in\n    tag_93:\n        /* \"#utility.yul\":2639:2758   */\n    tag_92:\n        /* \"#utility.yul\":2825:2826   */\n      0x00\n        /* \"#utility.yul\":2814:2823   */\n      dup3\n        /* \"#utility.yul\":2810:2827   */\n      add\n        /* \"#utility.yul\":2797:2828   */\n      calldataload\n        /* \"#utility.yul\":2855:2873   */\n      0xffffffffffffffff\n        /* \"#utility.yul\":2847:2853   */\n      dup2\n        /* \"#utility.yul\":2844:2874   */\n      gt\n        /* \"#utility.yul\":2841:2958   */\n      iszero\n      tag_94\n      jumpi\n        /* \"#utility.yul\":2877:2956   */\n      tag_95\n      tag_26\n      jump\t// in\n    tag_95:\n        /* \"#utility.yul\":2841:2958   */\n    tag_94:\n        /* \"#utility.yul\":2982:3045   */\n      tag_96\n        /* \"#utility.yul\":3037:3044   */\n      dup5\n        /* \"#utility.yul\":3028:3034   */\n      dup3\n        /* \"#utility.yul\":3017:3026   */\n      dup6\n        /* \"#utility.yul\":3013:3035   */\n      add\n        /* \"#utility.yul\":2982:3045   */\n      tag_36\n      jump\t// in\n    tag_96:\n        /* \"#utility.yul\":2972:3045   */\n      swap2\n      pop\n        /* \"#utility.yul\":2768:3055   */\n      pop\n        /* \"#utility.yul\":2553:3062   */\n      swap3\n      swap2\n      pop\n      pop\n      jump\t// out\n        /* \"#utility.yul\":3068:3166   */\n    tag_37:\n        /* \"#utility.yul\":3119:3125   */\n      0x00\n        /* \"#utility.yul\":3153:3158   */\n      dup2\n        /* \"#utility.yul\":3147:3159   */\n      mload\n        /* \"#utility.yul\":3137:3159   */\n      swap1\n      pop\n        /* \"#utility.yul\":3068:3166   */\n      swap2\n      swap1\n      pop\n      jump\t// out\n        /* \"#utility.yul\":3172:3340   */\n    tag_38:\n        /* \"#utility.yul\":3255:3266   */\n      0x00\n        /* \"#utility.yul\":3289:3295   */\n      dup3\n        /* \"#utility.yul\":3284:3287   */\n      dup3\n        /* \"#utility.yul\":3277:3296   */\n      mstore\n        /* \"#utility.yul\":3329:3333   */\n      0x20\n        /* \"#utility.yul\":3324:3327   */\n      dup3\n        /* \"#utility.yul\":3320:3334   */\n      add\n        /* \"#utility.yul\":3305:3334   */\n      swap1\n      pop\n        /* \"#utility.yul\":3172:3340   */\n      swap3\n      swap2\n      pop\n      pop\n      jump\t// out\n        /* \"#utility.yul\":3346:3592   */\n    tag_39:\n        /* \"#utility.yul\":3427:3428   */\n      0x00\n        /* \"#utility.yul\":3437:3550   */\n    tag_100:\n        /* \"#utility.yul\":3451:3457   */\n      dup4\n        /* \"#utility.yul\":3448:3449   */\n      dup2\n        /* \"#utility.yul\":3445:3458   */\n      lt\n        /* \"#utility.yul\":3437:3550   */\n      iszero\n      tag_102\n      jumpi\n        /* \"#utility.yul\":3536:3537   */\n      dup1\n        /* \"#utility.yul\":3531:3534   */\n      dup3\n        /* \"#utility.yul\":3527:3538   */\n      add\n        /* \"#utility.yul\":3521:3539   */\n      mload\n        /* \"#utility.yul\":3517:3518   */\n      dup2\n        /* \"#utility.yul\":3512:3515   */\n      dup5\n        /* \"#utility.yul\":3508:3519   */\n      add\n        /* \"#utility.yul\":3501:3540   */\n      mstore\n        /* \"#utility.yul\":3473:3475   */\n      0x20\n        /* \"#utility.yul\":3470:3471   */\n      dup2\n        /* \"#utility.yul\":3466:3476   */\n      add\n        /* \"#utility.yul\":3461:3476   */\n      swap1\n      pop\n        /* \"#utility.yul\":3437:3550   */\n      jump(tag_100)\n    tag_102:\n        /* \"#utility.yul\":3584:3585   */\n      0x00\n        /* \"#utility.yul\":3575:3581   */\n      dup5\n        /* \"#utility.yul\":3570:3573   */\n      dup5\n        /* \"#utility.yul\":3566:3582   */\n      add\n        /* \"#utility.yul\":3559:3586   */\n      mstore\n        /* \"#utility.yul\":3408:3592   */\n      pop\n        /* \"#utility.yul\":3346:3592   */\n      pop\n      pop\n      pop\n      jump\t// out\n        /* \"#utility.yul\":3598:3971   */\n    tag_40:\n        /* \"#utility.yul\":3684:3687   */\n      0x00\n        /* \"#utility.yul\":3712:3750   */\n      tag_104\n        /* \"#utility.yul\":3744:3749   */\n      dup3\n        /* \"#utility.yul\":3712:3750   */\n      tag_37\n      jump\t// in\n    tag_104:\n        /* \"#utility.yul\":3766:3836   */\n      tag_105\n        /* \"#utility.yul\":3829:3835   */\n      dup2\n        /* \"#utility.yul\":3824:3827   */\n      dup6\n        /* \"#utility.yul\":3766:3836   */\n      tag_38\n      jump\t// in\n    tag_105:\n        /* \"#utility.yul\":3759:3836   */\n      swap4\n      pop\n        /* \"#utility.yul\":3845:3910   */\n      tag_106\n        /* \"#utility.yul\":3903:3909   */\n      dup2\n        /* \"#utility.yul\":3898:3901   */\n      dup6\n        /* \"#utility.yul\":3891:3895   */\n      0x20\n        /* \"#utility.yul\":3884:3889   */\n      dup7\n        /* \"#utility.yul\":3880:3896   */\n      add\n        /* \"#utility.yul\":3845:3910   */\n      tag_39\n      jump\t// in\n    tag_106:\n        /* \"#utility.yul\":3935:3964   */\n      tag_107\n        /* \"#utility.yul\":3957:3963   */\n      dup2\n        /* \"#utility.yul\":3935:3964   */\n      tag_29\n      jump\t// in\n    tag_107:\n        /* \"#utility.yul\":3930:3933   */\n      dup5\n        /* \"#utility.yul\":3926:3965   */\n      add\n        /* \"#utility.yul\":3919:3965   */\n      swap2\n      pop\n        /* \"#utility.yul\":3688:3971   */\n      pop\n        /* \"#utility.yul\":3598:3971   */\n      swap3\n      swap2\n      pop\n      pop\n      jump\t// out\n        /* \"#utility.yul\":3977:4286   */\n    tag_12:\n        /* \"#utility.yul\":4088:4092   */\n      0x00\n        /* \"#utility.yul\":4126:4128   */\n      0x20\n        /* \"#utility.yul\":4115:4124   */\n      dup3\n        /* \"#utility.yul\":4111:4129   */\n      add\n        /* \"#utility.yul\":4103:4129   */\n      swap1\n      pop\n        /* \"#utility.yul\":4175:4184   */\n      dup2\n        /* \"#utility.yul\":4169:4173   */\n      dup2\n        /* \"#utility.yul\":4165:4185   */\n      sub\n        /* \"#utility.yul\":4161:4162   */\n      0x00\n        /* \"#utility.yul\":4150:4159   */\n      dup4\n        /* \"#utility.yul\":4146:4163   */\n      add\n        /* \"#utility.yul\":4139:4186   */\n      mstore\n        /* \"#utility.yul\":4203:4279   */\n      tag_109\n        /* \"#utility.yul\":4274:4278   */\n      dup2\n        /* \"#utility.yul\":4265:4271   */\n      dup5\n        /* \"#utility.yul\":4203:4279   */\n      tag_40\n      jump\t// in\n    tag_109:\n        /* \"#utility.yul\":4195:4279   */\n      swap1\n      pop\n        /* \"#utility.yul\":3977:4286   */\n      swap3\n      swap2\n      pop\n      pop\n      jump\t// out\n        /* \"#utility.yul\":4292:4391   */\n    tag_41:\n        /* \"#utility.yul\":4344:4350   */\n      0x00\n        /* \"#utility.yul\":4378:4383   */\n      dup2\n        /* \"#utility.yul\":4372:4384   */\n      mload\n        /* \"#utility.yul\":4362:4384   */\n      swap1\n      pop\n        /* \"#utility.yul\":4292:4391   */\n      swap2\n      swap1\n      pop\n      jump\t// out\n        /* \"#utility.yul\":4397:4545   */\n    tag_42:\n        /* \"#utility.yul\":4499:4510   */\n      0x00\n        /* \"#utility.yul\":4536:4539   */\n      dup2\n        /* \"#utility.yul\":4521:4539   */\n      swap1\n      pop\n        /* \"#utility.yul\":4397:4545   */\n      swap3\n      swap2\n      pop\n      pop\n      jump\t// out\n        /* \"#utility.yul\":4551:4941   */\n    tag_43:\n        /* \"#utility.yul\":4657:4660   */\n      0x00\n        /* \"#utility.yul\":4685:4724   */\n      tag_113\n        /* \"#utility.yul\":4718:4723   */\n      dup3\n        /* \"#utility.yul\":4685:4724   */\n      tag_41\n      jump\t// in\n    tag_113:\n        /* \"#utility.yul\":4740:4829   */\n      tag_114\n        /* \"#utility.yul\":4822:4828   */\n      dup2\n        /* \"#utility.yul\":4817:4820   */\n      dup6\n        /* \"#utility.yul\":4740:4829   */\n      tag_42\n      jump\t// in\n    tag_114:\n        /* \"#utility.yul\":4733:4829   */\n      swap4\n      pop\n        /* \"#utility.yul\":4838:4903   */\n      tag_115\n        /* \"#utility.yul\":4896:4902   */\n      dup2\n        /* \"#utility.yul\":4891:4894   */\n      dup6\n        /* \"#utility.yul\":4884:4888   */\n      0x20\n        /* \"#utility.yul\":4877:4882   */\n      dup7\n        /* \"#utility.yul\":4873:4889   */\n      add\n        /* \"#utility.yul\":4838:4903   */\n      tag_39\n      jump\t// in\n    tag_115:\n        /* \"#utility.yul\":4928:4934   */\n      dup1\n        /* \"#utility.yul\":4923:4926   */\n      dup5\n        /* \"#utility.yul\":4919:4935   */\n      add\n        /* \"#utility.yul\":4912:4935   */\n      swap2\n      pop\n        /* \"#utility.yul\":4661:4941   */\n      pop\n        /* \"#utility.yul\":4551:4941   */\n      swap3\n      swap2\n      pop\n      pop\n      jump\t// out\n        /* \"#utility.yul\":4947:5222   */\n    tag_15:\n        /* \"#utility.yul\":5079:5082   */\n      0x00\n        /* \"#utility.yul\":5101:5196   */\n      tag_117\n        /* \"#utility.yul\":5192:5195   */\n      dup3\n        /* \"#utility.yul\":5183:5189   */\n      dup5\n        /* \"#utility.yul\":5101:5196   */\n      tag_43\n      jump\t// in\n    tag_117:\n        /* \"#utility.yul\":5094:5196   */\n      swap2\n      pop\n        /* \"#utility.yul\":5213:5216   */\n      dup2\n        /* \"#utility.yul\":5206:5216   */\n      swap1\n      pop\n        /* \"#utility.yul\":4947:5222   */\n      swap3\n      swap2\n      pop\n      pop\n      jump\t// out\n        /* \"#utility.yul\":5228:5408   */\n    tag_44:\n        /* \"#utility.yul\":5276:5353   */\n      0x4e487b7100000000000000000000000000000000000000000000000000000000\n        /* \"#utility.yul\":5273:5274   */\n      0x00\n        /* \"#utility.yul\":5266:5354   */\n      mstore\n        /* \"#utility.yul\":5373:5377   */\n      0x22\n        /* \"#utility.yul\":5370:5371   */\n      0x04\n        /* \"#utility.yul\":5363:5378   */\n      mstore\n        /* \"#utility.yul\":5397:5401   */\n      0x24\n        /* \"#utility.yul\":5394:5395   */\n      0x00\n        /* \"#utility.yul\":5387:5402   */\n      revert\n        /* \"#utility.yul\":5414:5734   */\n    tag_19:\n        /* \"#utility.yul\":5458:5464   */\n      0x00\n        /* \"#utility.yul\":5495:5496   */\n      0x02\n        /* \"#utility.yul\":5489:5493   */\n      dup3\n        /* \"#utility.yul\":5485:5497   */\n      div\n        /* \"#utility.yul\":5475:5497   */\n      swap1\n      pop\n        /* \"#utility.yul\":5542:5543   */\n      0x01\n        /* \"#utility.yul\":5536:5540   */\n      dup3\n        /* \"#utility.yul\":5532:5544   */\n      and\n        /* \"#utility.yul\":5563:5581   */\n      dup1\n        /* \"#utility.yul\":5553:5634   */\n      tag_120\n      jumpi\n        /* \"#utility.yul\":5619:5623   */\n      0x7f\n        /* \"#utility.yul\":5611:5617   */\n      dup3\n        /* \"#utility.yul\":5607:5624   */\n      and\n        /* \"#utility.yul\":5597:5624   */\n      swap2\n      pop\n        /* \"#utility.yul\":5553:5634   */\n    tag_120:\n        /* \"#utility.yul\":5681:5683   */\n      0x20\n        /* \"#utility.yul\":5673:5679   */\n      dup3\n        /* \"#utility.yul\":5670:5684   */\n      lt\n        /* \"#utility.yul\":5650:5668   */\n      dup2\n        /* \"#utility.yul\":5647:5685   */\n      sub\n        /* \"#utility.yul\":5644:5728   */\n      tag_121\n      jumpi\n        /* \"#utility.yul\":5700:5718   */\n      tag_122\n      tag_44\n      jump\t// in\n    tag_122:\n        /* \"#utility.yul\":5644:5728   */\n    tag_121:\n        /* \"#utility.yul\":5465:5734   */\n      pop\n        /* \"#utility.yul\":5414:5734   */\n      swap2\n      swap1\n      pop\n      jump\t// out\n        /* \"#utility.yul\":5740:5880   */\n    tag_45:\n        /* \"#utility.yul\":5788:5792   */\n      0x00\n        /* \"#utility.yul\":5811:5814   */\n      dup2\n        /* \"#utility.yul\":5803:5814   */\n      swap1\n      pop\n        /* \"#utility.yul\":5834:5837   */\n      dup2\n        /* \"#utility.yul\":5831:5832   */\n      0x00\n        /* \"#utility.yul\":5824:5838   */\n      mstore\n        /* \"#utility.yul\":5868:5872   */\n      0x20\n        /* \"#utility.yul\":5865:5866   */\n      0x00\n        /* \"#utility.yul\":5855:5873   */\n      keccak256\n        /* \"#utility.yul\":5847:5873   */\n      swap1\n      pop\n        /* \"#utility.yul\":5740:5880   */\n      swap2\n      swap1\n      pop\n      jump\t// out\n        /* \"#utility.yul\":5886:5979   */\n    tag_46:\n        /* \"#utility.yul\":5923:5929   */\n      0x00\n        /* \"#utility.yul\":5970:5972   */\n      0x20\n        /* \"#utility.yul\":5965:5967   */\n      0x1f\n        /* \"#utility.yul\":5958:5963   */\n      dup4\n        /* \"#utility.yul\":5954:5968   */\n      add\n        /* \"#utility.yul\":5950:5973   */\n      div\n        /* \"#utility.yul\":5940:5973   */\n      swap1\n      pop\n        /* \"#utility.yul\":5886:5979   */\n      swap2\n      swap1\n      pop\n      jump\t// out\n        /* \"#utility.yul\":5985:6092   */\n    tag_47:\n        /* \"#utility.yul\":6029:6037   */\n      0x00\n        /* \"#utility.yul\":6079:6084   */\n      dup3\n        /* \"#utility.yul\":6073:6077   */\n      dup3\n        /* \"#utility.yul\":6069:6085   */\n      shl\n        /* \"#utility.yul\":6048:6085   */\n      swap1\n      pop\n        /* \"#utility.yul\":5985:6092   */\n      swap3\n      swap2\n      pop\n      pop\n      jump\t// out\n        /* \"#utility.yul\":6098:6491   */\n    tag_48:\n        /* \"#utility.yul\":6167:6173   */\n      0x00\n        /* \"#utility.yul\":6217:6218   */\n      0x08\n        /* \"#utility.yul\":6205:6215   */\n      dup4\n        /* \"#utility.yul\":6201:6219   */\n      mul\n        /* \"#utility.yul\":6240:6337   */\n      tag_127\n        /* \"#utility.yul\":6270:6336   */\n      0xffffffffffffffffffffffffffffffffffffffffffffffffffffffffffffffff\n        /* \"#utility.yul\":6259:6268   */\n      dup3\n        /* \"#utility.yul\":6240:6337   */\n      tag_47\n      jump\t// in\n    tag_127:\n        /* \"#utility.yul\":6358:6397   */\n      tag_128\n        /* \"#utility.yul\":6388:6396   */\n      dup7\n        /* \"#utility.yul\":6377:6386   */\n      dup4\n        /* \"#utility.yul\":6358:6397   */\n      tag_47\n      jump\t// in\n    tag_128:\n        /* \"#utility.yul\":6346:6397   */\n      swap6\n      pop\n        /* \"#utility.yul\":6430:6434   */\n      dup1\n        /* \"#utility.yul\":6426:6435   */\n      not\n        /* \"#utility.yul\":6419:6424   */\n      dup5\n        /* \"#utility.yul\":6415:6436   */\n      and\n        /* \"#utility.yul\":6406:6436   */\n      swap4\n      pop\n        /* \"#utility.yul\":6479:6483   */\n      dup1\n        /* \"#utility.yul\":6469:6477   */\n      dup7\n        /* \"#utility.yul\":6465:6484   */\n      and\n        /* \"#utility.yul\":6458:6463   */\n      dup5\n        /* \"#utility.yul\":6455:6485   */\n      or\n        /* \"#utility.yul\":6445:6485   */\n      swap3\n      pop\n        /* \"#utility.yul\":6174:6491   */\n      pop\n      pop\n        /* \"#utility.yul\":6098:6491   */\n      swap4\n      swap3\n      pop\n      pop\n      pop\n      jump\t// out\n        /* \"#utility.yul\":6497:6574   */\n    tag_49:\n        /* \"#utility.yul\":6534:6541   */\n      0x00\n        /* \"#utility.yul\":6563:6568   */\n      dup2\n        /* \"#utility.yul\":6552:6568   */\n      swap1\n      pop\n        /* \"#utility.yul\":6497:6574   */\n      swap2\n      swap1\n      pop\n      jump\t// out\n        /* \"#utility.yul\":6580:6640   */\n    tag_50:\n        /* \"#utility.yul\":6608:6611   */\n      0x00\n        /* \"#utility.yul\":6629:6634   */\n      dup2\n        /* \"#utility.yul\":6622:6634   */\n      swap1\n      pop\n        /* \"#utility.yul\":6580:6640   */\n      swap2\n      swap1\n      pop\n      jump\t// out\n        /* \"#utility.yul\":6646:6788   */\n    tag_51:\n        /* \"#utility.yul\":6696:6705   */\n      0x00\n        /* \"#utility.yul\":6729:6782   */\n      tag_132\n        /* \"#utility.yul\":6747:6781   */\n      tag_133\n        /* \"#utility.yul\":6756:6780   */\n      tag_134\n        /* \"#utility.yul\":6774:6779   */\n      dup5\n        /* \"#utility.yul\":6756:6780   */\n      tag_49\n      jump\t// in\n    tag_134:\n        /* \"#utility.yul\":6747:6781   */\n      tag_50\n      jump\t// in\n    tag_133:\n        /* \"#utility.yul\":6729:6782   */\n      tag_49\n      jump\t// in\n    tag_132:\n        /* \"#utility.yul\":6716:6782   */\n      swap1\n      pop\n        /* \"#utility.yul\":6646:6788   */\n      swap2\n      swap1\n      pop\n      jump\t// out\n        /* \"#utility.yul\":6794:6869   */\n    tag_52:\n        /* \"#utility.yul\":6837:6840   */\n      0x00\n        /* \"#utility.yul\":6858:6863   */\n      dup2\n        /* \"#utility.yul\":6851:6863   */\n      swap1\n      pop\n        /* \"#utility.yul\":6794:6869   */\n      swap2\n      swap1\n      pop\n      jump\t// out\n        /* \"#utility.yul\":6875:7144   */\n    tag_53:\n        /* \"#utility.yul\":6985:7024   */\n      tag_137\n        /* \"#utility.yul\":7016:7023   */\n      dup4\n        /* \"#utility.yul\":6985:7024   */\n      tag_51\n      jump\t// in\n    tag_137:\n        /* \"#utility.yul\":7046:7137   */\n      tag_138\n        /* \"#utility.yul\":7095:7136   */\n      tag_139\n        /* \"#utility.yul\":7119:7135   */\n      dup3\n        /* \"#utility.yul\":7095:7136   */\n      tag_52\n      jump\t// in\n    tag_139:\n        /* \"#utility.yul\":7087:7093   */\n      dup5\n        /* \"#utility.yul\":7080:7084   */\n      dup5\n        /* \"#utility.yul\":7074:7085   */\n      sload\n        /* \"#utility.yul\":7046:7137   */\n      tag_48\n      jump\t// in\n    tag_138:\n        /* \"#utility.yul\":7040:7044   */\n      dup3\n        /* \"#utility.yul\":7033:7138   */\n      sstore\n        /* \"#utility.yul\":6951:7144   */\n      pop\n        /* \"#utility.yul\":6875:7144   */\n      pop\n      pop\n      pop\n      jump\t// out\n        /* \"#utility.yul\":7150:7223   */\n    tag_54:\n        /* \"#utility.yul\":7195:7198   */\n      0x00\n        /* \"#utility.yul\":7150:7223   */\n      swap1\n      jump\t// out\n        /* \"#utility.yul\":7229:7418   */\n    tag_55:\n        /* \"#utility.yul\":7306:7338   */\n      tag_142\n      tag_54\n      jump\t// in\n    tag_142:\n        /* \"#utility.yul\":7347:7412   */\n      tag_143\n        /* \"#utility.yul\":7405:7411   */\n      dup2\n        /* \"#utility.yul\":7397:7403   */\n      dup5\n        /* \"#utility.yul\":7391:7395   */\n      dup5\n        /* \"#utility.yul\":7347:7412   */\n      tag_53\n      jump\t// in\n    tag_143:\n        /* \"#utility.yul\":7282:7418   */\n      pop\n        /* \"#utility.yul\":7229:7418   */\n      pop\n      pop\n      jump\t// out\n        /* \"#utility.yul\":7424:7610   */\n    tag_56:\n        /* \"#utility.yul\":7484:7604   */\n    tag_145:\n        /* \"#utility.yul\":7501:7504   */\n      dup2\n        /* \"#utility.yul\":7494:7499   */\n      dup2\n        /* \"#utility.yul\":7491:7505   */\n      lt\n        /* \"#utility.yul\":7484:7604   */\n      iszero\n      tag_147\n      jumpi\n        /* \"#utility.yul\":7555:7594   */\n      tag_148\n        /* \"#utility.yul\":7592:7593   */\n      0x00\n        /* \"#utility.yul\":7585:7590   */\n      dup3\n        /* \"#utility.yul\":7555:7594   */\n      tag_55\n      jump\t// in\n    tag_148:\n        /* \"#utility.yul\":7528:7529   */\n      0x01\n        /* \"#utility.yul\":7521:7526   */\n      dup2\n        /* \"#utility.yul\":7517:7530   */\n      add\n        /* \"#utility.yul\":7508:7530   */\n      swap1\n      pop\n        /* \"#utility.yul\":7484:7604   */\n      jump(tag_145)\n    tag_147:\n        /* \"#utility.yul\":7424:7610   */\n      pop\n      pop\n      jump\t// out\n        /* \"#utility.yul\":7616:8157   */\n    tag_57:\n        /* \"#utility.yul\":7716:7718   */\n      0x1f\n        /* \"#utility.yul\":7711:7714   */\n      dup3\n        /* \"#utility.yul\":7708:7719   */\n      gt\n        /* \"#utility.yul\":7705:8150   */\n      iszero\n      tag_150\n      jumpi\n        /* \"#utility.yul\":7750:7787   */\n      tag_151\n        /* \"#utility.yul\":7781:7786   */\n      dup2\n        /* \"#utility.yul\":7750:7787   */\n      tag_45\n      jump\t// in\n    tag_151:\n        /* \"#utility.yul\":7833:7862   */\n      tag_152\n        /* \"#utility.yul\":7851:7861   */\n      dup5\n        /* \"#utility.yul\":7833:7862   */\n      tag_46\n      jump\t// in\n    tag_152:\n        /* \"#utility.yul\":7823:7831   */\n      dup2\n        /* \"#utility.yul\":7819:7863   */\n      add\n        /* \"#utility.yul\":8016:8018   */\n      0x20\n        /* \"#utility.yul\":8004:8014   */\n      dup6\n        /* \"#utility.yul\":8001:8019   */\n      lt\n        /* \"#utility.yul\":7998:8047   */\n      iszero\n      tag_153\n      jumpi\n        /* \"#utility.yul\":8037:8045   */\n      dup2\n        /* \"#utility.yul\":8022:8045   */\n      swap1\n      pop\n        /* \"#utility.yul\":7998:8047   */\n    tag_153:\n        /* \"#utility.yul\":8060:8140   */\n      tag_154\n        /* \"#utility.yul\":8116:8138   */\n      tag_155\n        /* \"#utility.yul\":8134:8137   */\n      dup6\n        /* \"#utility.yul\":8116:8138   */\n      tag_46\n      jump\t// in\n    tag_155:\n        /* \"#utility.yul\":8106:8114   */\n      dup4\n        /* \"#utility.yul\":8102:8139   */\n      add\n        /* \"#utility.yul\":8089:8100   */\n      dup3\n        /* \"#utility.yul\":8060:8140   */\n      tag_56\n      jump\t// in\n    tag_154:\n        /* \"#utility.yul\":7720:8150   */\n      pop\n      pop\n        /* \"#utility.yul\":7705:8150   */\n    tag_150:\n        /* \"#utility.yul\":7616:8157   */\n      pop\n      pop\n      pop\n      jump\t// out\n        /* \"#utility.yul\":8163:8280   */\n    tag_58:\n        /* \"#utility.yul\":8217:8225   */\n      0x00\n        /* \"#utility.yul\":8267:8272   */\n      dup3\n        /* \"#utility.yul\":8261:8265   */\n      dup3\n        /* \"#utility.yul\":8257:8273   */\n      shr\n        /* \"#utility.yul\":8236:8273   */\n      swap1\n      pop\n        /* \"#utility.yul\":8163:8280   */\n      swap3\n      swap2\n      pop\n      pop\n      jump\t// out\n        /* \"#utility.yul\":8286:8455   */\n    tag_59:\n        /* \"#utility.yul\":8330:8336   */\n      0x00\n        /* \"#utility.yul\":8363:8414   */\n      tag_158\n        /* \"#utility.yul\":8411:8412   */\n      0x00\n        /* \"#utility.yul\":8407:8413   */\n      not\n        /* \"#utility.yul\":8399:8404   */\n      dup5\n        /* \"#utility.yul\":8396:8397   */\n      0x08\n        /* \"#utility.yul\":8392:8405   */\n      mul\n        /* \"#utility.yul\":8363:8414   */\n      tag_58\n      jump\t// in\n    tag_158:\n        /* \"#utility.yul\":8359:8415   */\n      not\n        /* \"#utility.yul\":8444:8448   */\n      dup1\n        /* \"#utility.yul\":8438:8442   */\n      dup4\n        /* \"#utility.yul\":8434:8449   */\n      and\n        /* \"#utility.yul\":8424:8449   */\n      swap2\n      pop\n        /* \"#utility.yul\":8337:8455   */\n      pop\n        /* \"#utility.yul\":8286:8455   */\n      swap3\n      swap2\n      pop\n      pop\n      jump\t// out\n        /* \"#utility.yul\":8460:8755   */\n    tag_60:\n        /* \"#utility.yul\":8536:8540   */\n      0x00\n        /* \"#utility.yul\":8682:8711   */\n      tag_160\n        /* \"#utility.yul\":8707:8710   */\n      dup4\n        /* \"#utility.yul\":8701:8705   */\n      dup4\n        /* \"#utility.yul\":8682:8711   */\n      tag_59\n      jump\t// in\n    tag_160:\n        /* \"#utility.yul\":8674:8711   */\n      swap2\n      pop\n        /* \"#utility.yul\":8744:8747   */\n      dup3\n        /* \"#utility.yul\":8741:8742   */\n      0x02\n        /* \"#utility.yul\":8737:8748   */\n      mul\n        /* \"#utility.yul\":8731:8735   */\n      dup3\n        /* \"#utility.yul\":8728:8749   */\n      or\n        /* \"#utility.yul\":8720:8749   */\n      swap1\n      pop\n        /* \"#utility.yul\":8460:8755   */\n      swap3\n      swap2\n      pop\n      pop\n      jump\t// out\n        /* \"#utility.yul\":8760:10150   */\n    tag_17:\n        /* \"#utility.yul\":8875:8911   */\n      tag_162\n        /* \"#utility.yul\":8907:8910   */\n      dup3\n        /* \"#utility.yul\":8875:8911   */\n      tag_37\n      jump\t// in\n    tag_162:\n        /* \"#utility.yul\":8976:8994   */\n      0xffffffffffffffff\n        /* \"#utility.yul\":8968:8974   */\n      dup2\n        /* \"#utility.yul\":8965:8995   */\n      gt\n        /* \"#utility.yul\":8962:9018   */\n      iszero\n      tag_163\n      jumpi\n        /* \"#utility.yul\":8998:9016   */\n      tag_164\n      tag_30\n      jump\t// in\n    tag_164:\n        /* \"#utility.yul\":8962:9018   */\n    tag_163:\n        /* \"#utility.yul\":9042:9080   */\n      tag_165\n        /* \"#utility.yul\":9074:9078   */\n      dup3\n        /* \"#utility.yul\":9068:9079   */\n      sload\n        /* \"#utility.yul\":9042:9080   */\n      tag_19\n      jump\t// in\n    tag_165:\n        /* \"#utility.yul\":9127:9193   */\n      tag_166\n        /* \"#utility.yul\":9186:9192   */\n      dup3\n        /* \"#utility.yul\":9178:9184   */\n      dup3\n        /* \"#utility.yul\":9172:9176   */\n      dup6\n        /* \"#utility.yul\":9127:9193   */\n      tag_57\n      jump\t// in\n    tag_166:\n        /* \"#utility.yul\":9220:9221   */\n      0x00\n        /* \"#utility.yul\":9244:9248   */\n      0x20\n        /* \"#utility.yul\":9231:9248   */\n      swap1\n      pop\n        /* \"#utility.yul\":9276:9278   */\n      0x1f\n        /* \"#utility.yul\":9268:9274   */\n      dup4\n        /* \"#utility.yul\":9265:9279   */\n      gt\n        /* \"#utility.yul\":9293:9294   */\n      0x01\n        /* \"#utility.yul\":9288:9905   */\n      dup2\n      eq\n      tag_168\n      jumpi\n        /* \"#utility.yul\":9949:9950   */\n      0x00\n        /* \"#utility.yul\":9966:9972   */\n      dup5\n        /* \"#utility.yul\":9963:10040   */\n      iszero\n      tag_169\n      jumpi\n        /* \"#utility.yul\":10015:10024   */\n      dup3\n        /* \"#utility.yul\":10010:10013   */\n      dup8\n        /* \"#utility.yul\":10006:10025   */\n      add\n        /* \"#utility.yul\":10000:10026   */\n      mload\n        /* \"#utility.yul\":9991:10026   */\n      swap1\n      pop\n        /* \"#utility.yul\":9963:10040   */\n    tag_169:\n        /* \"#utility.yul\":10066:10133   */\n      tag_170\n        /* \"#utility.yul\":10126:10132   */\n      dup6\n        /* \"#utility.yul\":10119:10124   */\n      dup3\n        /* \"#utility.yul\":10066:10133   */\n      tag_60\n      jump\t// in\n    tag_170:\n        /* \"#utility.yul\":10060:10064   */\n      dup7\n        /* \"#utility.yul\":10053:10134   */\n      sstore\n        /* \"#utility.yul\":9922:10144   */\n      pop\n        /* \"#utility.yul\":9258:10144   */\n      jump(tag_167)\n        /* \"#utility.yul\":9288:9905   */\n    tag_168:\n        /* \"#utility.yul\":9340:9344   */\n      0x1f\n        /* \"#utility.yul\":9336:9345   */\n      not\n        /* \"#utility.yul\":9328:9334   */\n      dup5\n        /* \"#utility.yul\":9324:9346   */\n      and\n        /* \"#utility.yul\":9374:9410   */\n      tag_171\n        /* \"#utility.yul\":9405:9409   */\n      dup7\n        /* \"#utility.yul\":9374:9410   */\n      tag_45\n      jump\t// in\n    tag_171:\n        /* \"#utility.yul\":9432:9433   */\n      0x00\n        /* \"#utility.yul\":9446:9654   */\n    tag_172:\n        /* \"#utility.yul\":9460:9467   */\n      dup3\n        /* \"#utility.yul\":9457:9458   */\n      dup2\n        /* \"#utility.yul\":9454:9468   */\n      lt\n        /* \"#utility.yul\":9446:9654   */\n      iszero\n      tag_174\n      jumpi\n        /* \"#utility.yul\":9539:9548   */\n      dup5\n        /* \"#utility.yul\":9534:9537   */\n      dup10\n        /* \"#utility.yul\":9530:9549   */\n      add\n        /* \"#utility.yul\":9524:9550   */\n      mload\n        /* \"#utility.yul\":9516:9522   */\n      dup3\n        /* \"#utility.yul\":9509:9551   */\n      sstore\n        /* \"#utility.yul\":9590:9591   */\n      0x01\n        /* \"#utility.yul\":9582:9588   */\n      dup3\n        /* \"#utility.yul\":9578:9592   */\n      add\n        /* \"#utility.yul\":9568:9592   */\n      swap2\n      pop\n        /* \"#utility.yul\":9637:9639   */\n      0x20\n        /* \"#utility.yul\":9626:9635   */\n      dup6\n        /* \"#utility.yul\":9622:9640   */\n      add\n        /* \"#utility.yul\":9609:9640   */\n      swap5\n      pop\n        /* \"#utility.yul\":9483:9487   */\n      0x20\n        /* \"#utility.yul\":9480:9481   */\n      dup2\n        /* \"#utility.yul\":9476:9488   */\n      add\n        /* \"#utility.yul\":9471:9488   */\n      swap1\n      pop\n        /* \"#utility.yul\":9446:9654   */\n      jump(tag_172)\n    tag_174:\n        /* \"#utility.yul\":9682:9688   */\n      dup7\n        /* \"#utility.yul\":9673:9680   */\n      dup4\n        /* \"#utility.yul\":9670:9689   */\n      lt\n        /* \"#utility.yul\":9667:9846   */\n      iszero\n      tag_175\n      jumpi\n        /* \"#utility.yul\":9740:9749   */\n      dup5\n        /* \"#utility.yul\":9735:9738   */\n      dup10\n        /* \"#utility.yul\":9731:9750   */\n      add\n        /* \"#utility.yul\":9725:9751   */\n      mload\n        /* \"#utility.yul\":9783:9831   */\n      tag_176\n        /* \"#utility.yul\":9825:9829   */\n      0x1f\n        /* \"#utility.yul\":9817:9823   */\n      dup10\n        /* \"#utility.yul\":9813:9830   */\n      and\n        /* \"#utility.yul\":9802:9811   */\n      dup3\n        /* \"#utility.yul\":9783:9831   */\n      tag_59\n      jump\t// in\n    tag_176:\n        /* \"#utility.yul\":9775:9781   */\n      dup4\n        /* \"#utility.yul\":9768:9832   */\n      sstore\n        /* \"#utility.yul\":9690:9846   */\n      pop\n        /* \"#utility.yul\":9667:9846   */\n    tag_175:\n        /* \"#utility.yul\":9892:9893   */\n      0x01\n        /* \"#utility.yul\":9888:9889   */\n      0x02\n        /* \"#utility.yul\":9880:9886   */\n      dup9\n        /* \"#utility.yul\":9876:9890   */\n      mul\n        /* \"#utility.yul\":9872:9894   */\n      add\n        /* \"#utility.yul\":9866:9870   */\n      dup9\n        /* \"#utility.yul\":9859:9895   */\n      sstore\n        /* \"#utility.yul\":9295:9905   */\n      pop\n      pop\n      pop\n        /* \"#utility.yul\":9258:10144   */\n    tag_167:\n      pop\n        /* \"#utility.yul\":8850:10150   */\n      pop\n      pop\n      pop\n        /* \"#utility.yul\":8760:10150   */\n      pop\n      pop\n      jump\t// out\n\n    auxdata: 0xa2646970667358221220126d546c34252859ae8792cf2f1ee53b86a16e1086911c93cce44d388c84563a64736f6c63430008120033\n}\n",
				"bytecode": {
					"linkReferences": {},
					"object": "60806040523480156200001157600080fd5b506040516020016200002390620000a4565b6040516020818303038152906040526000908162000042919062000335565b506200041c565b600081905092915050565b7f48656c6c6f20736f6c6964697479210000000000000000000000000000000000600082015250565b60006200008c600f8362000049565b9150620000998262000054565b600f82019050919050565b6000620000b1826200007d565b9150819050919050565b600081519050919050565b7f4e487b7100000000000000000000000000000000000000000000000000000000600052604160045260246000fd5b7f4e487b7100000000000000000000000000000000000000000000000000000000600052602260045260246000fd5b600060028204905060018216806200013d57607f821691505b602082108103620001535762000152620000f5565b5b50919050565b60008190508160005260206000209050919050565b60006020601f8301049050919050565b600082821b905092915050565b600060088302620001bd7fffffffffffffffffffffffffffffffffffffffffffffffffffffffffffffffff826200017e565b620001c986836200017e565b95508019841693508086168417925050509392505050565b6000819050919050565b6000819050919050565b600062000216620002106200020a84620001e1565b620001eb565b620001e1565b9050919050565b6000819050919050565b6200023283620001f5565b6200024a62000241826200021d565b8484546200018b565b825550505050565b600090565b6200026162000252565b6200026e81848462000227565b505050565b5b8181101562000296576200028a60008262000257565b60018101905062000274565b5050565b601f821115620002e557620002af8162000159565b620002ba846200016e565b81016020851015620002ca578190505b620002e2620002d9856200016e565b83018262000273565b50505b505050565b600082821c905092915050565b60006200030a60001984600802620002ea565b1980831691505092915050565b6000620003258383620002f7565b9150826002028217905092915050565b6200034082620000bb565b67ffffffffffffffff8111156200035c576200035b620000c6565b5b62000368825462000124565b620003758282856200029a565b600060209050601f831160018114620003ad576000841562000398578287015190505b620003a4858262000317565b86555062000414565b601f198416620003bd8662000159565b60005b82811015620003e757848901518255600182019150602085019450602081019050620003c0565b8683101562000407578489015162000403601f891682620002f7565b8355505b6001600288020188555050505b505050505050565b6106f5806200042c6000396000f3fe608060405234801561001057600080fd5b50600436106100365760003560e01c806331aa4be21461003b578063712f460214610057575b600080fd5b6100556004803603810190610050919061028f565b610075565b005b61005f6100a7565b60405161006c9190610357565b60405180910390f35b8060405160200161008691906103c0565b604051602081830303815290604052600090816100a391906105ed565b5050565b600080546100b490610406565b80601f01602080910402602001604051908101604052809291908181526020018280546100e090610406565b801561012d5780601f106101025761010080835404028352916020019161012d565b820191906000526020600020905b81548152906001019060200180831161011057829003601f168201915b505050505081565b6000604051905090565b600080fd5b600080fd5b600080fd5b600080fd5b6000601f19601f8301169050919050565b7f4e487b7100000000000000000000000000000000000000000000000000000000600052604160045260246000fd5b61019c82610153565b810181811067ffffffffffffffff821117156101bb576101ba610164565b5b80604052505050565b60006101ce610135565b90506101da8282610193565b919050565b600067ffffffffffffffff8211156101fa576101f9610164565b5b61020382610153565b9050602081019050919050565b82818337600083830152505050565b600061023261022d846101df565b6101c4565b90508281526020810184848401111561024e5761024d61014e565b5b610259848285610210565b509392505050565b600082601f83011261027657610275610149565b5b813561028684826020860161021f565b91505092915050565b6000602082840312156102a5576102a461013f565b5b600082013567ffffffffffffffff8111156102c3576102c2610144565b5b6102cf84828501610261565b91505092915050565b600081519050919050565b600082825260208201905092915050565b60005b838110156103125780820151818401526020810190506102f7565b60008484015250505050565b6000610329826102d8565b61033381856102e3565b93506103438185602086016102f4565b61034c81610153565b840191505092915050565b60006020820190508181036000830152610371818461031e565b905092915050565b600081519050919050565b600081905092915050565b600061039a82610379565b6103a48185610384565b93506103b48185602086016102f4565b80840191505092915050565b60006103cc828461038f565b915081905092915050565b7f4e487b7100000000000000000000000000000000000000000000000000000000600052602260045260246000fd5b6000600282049050600182168061041e57607f821691505b602082108103610431576104306103d7565b5b50919050565b60008190508160005260206000209050919050565b60006020601f8301049050919050565b600082821b905092915050565b6000600883026104997fffffffffffffffffffffffffffffffffffffffffffffffffffffffffffffffff8261045c565b6104a3868361045c565b95508019841693508086168417925050509392505050565b6000819050919050565b6000819050919050565b60006104ea6104e56104e0846104bb565b6104c5565b6104bb565b9050919050565b6000819050919050565b610504836104cf565b610518610510826104f1565b848454610469565b825550505050565b600090565b61052d610520565b6105388184846104fb565b505050565b5b8181101561055c57610551600082610525565b60018101905061053e565b5050565b601f8211156105a15761057281610437565b61057b8461044c565b8101602085101561058a578190505b61059e6105968561044c565b83018261053d565b50505b505050565b600082821c905092915050565b60006105c4600019846008026105a6565b1980831691505092915050565b60006105dd83836105b3565b9150826002028217905092915050565b6105f6826102d8565b67ffffffffffffffff81111561060f5761060e610164565b5b6106198254610406565b610624828285610560565b600060209050601f8311600181146106575760008415610645578287015190505b61064f85826105d1565b8655506106b7565b601f19841661066586610437565b60005b8281101561068d57848901518255600182019150602085019450602081019050610668565b868310156106aa57848901516106a6601f8916826105b3565b8355505b6001600288020188555050505b50505050505056fea2646970667358221220126d546c34252859ae8792cf2f1ee53b86a16e1086911c93cce44d388c84563a64736f6c63430008120033",
					"opcodes": "PUSH1 0x80 PUSH1 0x40 MSTORE CALLVALUE DUP1 ISZERO PUSH3 0x11 JUMPI PUSH1 0x0 DUP1 REVERT JUMPDEST POP PUSH1 0x40 MLOAD PUSH1 0x20 ADD PUSH3 0x23 SWAP1 PUSH3 0xA4 JUMP JUMPDEST PUSH1 0x40 MLOAD PUSH1 0x20 DUP2 DUP4 SUB SUB DUP2 MSTORE SWAP1 PUSH1 0x40 MSTORE PUSH1 0x0 SWAP1 DUP2 PUSH3 0x42 SWAP2 SWAP1 PUSH3 0x335 JUMP JUMPDEST POP PUSH3 0x41C JUMP JUMPDEST PUSH1 0x0 DUP2 SWAP1 POP SWAP3 SWAP2 POP POP JUMP JUMPDEST PUSH32 0x48656C6C6F20736F6C6964697479210000000000000000000000000000000000 PUSH1 0x0 DUP3 ADD MSTORE POP JUMP JUMPDEST PUSH1 0x0 PUSH3 0x8C PUSH1 0xF DUP4 PUSH3 0x49 JUMP JUMPDEST SWAP2 POP PUSH3 0x99 DUP3 PUSH3 0x54 JUMP JUMPDEST PUSH1 0xF DUP3 ADD SWAP1 POP SWAP2 SWAP1 POP JUMP JUMPDEST PUSH1 0x0 PUSH3 0xB1 DUP3 PUSH3 0x7D JUMP JUMPDEST SWAP2 POP DUP2 SWAP1 POP SWAP2 SWAP1 POP JUMP JUMPDEST PUSH1 0x0 DUP2 MLOAD SWAP1 POP SWAP2 SWAP1 POP JUMP JUMPDEST PUSH32 0x4E487B7100000000000000000000000000000000000000000000000000000000 PUSH1 0x0 MSTORE PUSH1 0x41 PUSH1 0x4 MSTORE PUSH1 0x24 PUSH1 0x0 REVERT JUMPDEST PUSH32 0x4E487B7100000000000000000000000000000000000000000000000000000000 PUSH1 0x0 MSTORE PUSH1 0x22 PUSH1 0x4 MSTORE PUSH1 0x24 PUSH1 0x0 REVERT JUMPDEST PUSH1 0x0 PUSH1 0x2 DUP3 DIV SWAP1 POP PUSH1 0x1 DUP3 AND DUP1 PUSH3 0x13D JUMPI PUSH1 0x7F DUP3 AND SWAP2 POP JUMPDEST PUSH1 0x20 DUP3 LT DUP2 SUB PUSH3 0x153 JUMPI PUSH3 0x152 PUSH3 0xF5 JUMP JUMPDEST JUMPDEST POP SWAP2 SWAP1 POP JUMP JUMPDEST PUSH1 0x0 DUP2 SWAP1 POP DUP2 PUSH1 0x0 MSTORE PUSH1 0x20 PUSH1 0x0 KECCAK256 SWAP1 POP SWAP2 SWAP1 POP JUMP JUMPDEST PUSH1 0x0 PUSH1 0x20 PUSH1 0x1F DUP4 ADD DIV SWAP1 POP SWAP2 SWAP1 POP JUMP JUMPDEST PUSH1 0x0 DUP3 DUP3 SHL SWAP1 POP SWAP3 SWAP2 POP POP JUMP JUMPDEST PUSH1 0x0 PUSH1 0x8 DUP4 MUL PUSH3 0x1BD PUSH32 0xFFFFFFFFFFFFFFFFFFFFFFFFFFFFFFFFFFFFFFFFFFFFFFFFFFFFFFFFFFFFFFFF DUP3 PUSH3 0x17E JUMP JUMPDEST PUSH3 0x1C9 DUP7 DUP4 PUSH3 0x17E JUMP JUMPDEST SWAP6 POP DUP1 NOT DUP5 AND SWAP4 POP DUP1 DUP7 AND DUP5 OR SWAP3 POP POP POP SWAP4 SWAP3 POP POP POP JUMP JUMPDEST PUSH1 0x0 DUP2 SWAP1 POP SWAP2 SWAP1 POP JUMP JUMPDEST PUSH1 0x0 DUP2 SWAP1 POP SWAP2 SWAP1 POP JUMP JUMPDEST PUSH1 0x0 PUSH3 0x216 PUSH3 0x210 PUSH3 0x20A DUP5 PUSH3 0x1E1 JUMP JUMPDEST PUSH3 0x1EB JUMP JUMPDEST PUSH3 0x1E1 JUMP JUMPDEST SWAP1 POP SWAP2 SWAP1 POP JUMP JUMPDEST PUSH1 0x0 DUP2 SWAP1 POP SWAP2 SWAP1 POP JUMP JUMPDEST PUSH3 0x232 DUP4 PUSH3 0x1F5 JUMP JUMPDEST PUSH3 0x24A PUSH3 0x241 DUP3 PUSH3 0x21D JUMP JUMPDEST DUP5 DUP5 SLOAD PUSH3 0x18B JUMP JUMPDEST DUP3 SSTORE POP POP POP POP JUMP JUMPDEST PUSH1 0x0 SWAP1 JUMP JUMPDEST PUSH3 0x261 PUSH3 0x252 JUMP JUMPDEST PUSH3 0x26E DUP2 DUP5 DUP5 PUSH3 0x227 JUMP JUMPDEST POP POP POP JUMP JUMPDEST JUMPDEST DUP2 DUP2 LT ISZERO PUSH3 0x296 JUMPI PUSH3 0x28A PUSH1 0x0 DUP3 PUSH3 0x257 JUMP JUMPDEST PUSH1 0x1 DUP2 ADD SWAP1 POP PUSH3 0x274 JUMP JUMPDEST POP POP JUMP JUMPDEST PUSH1 0x1F DUP3 GT ISZERO PUSH3 0x2E5 JUMPI PUSH3 0x2AF DUP2 PUSH3 0x159 JUMP JUMPDEST PUSH3 0x2BA DUP5 PUSH3 0x16E JUMP JUMPDEST DUP2 ADD PUSH1 0x20 DUP6 LT ISZERO PUSH3 0x2CA JUMPI DUP2 SWAP1 POP JUMPDEST PUSH3 0x2E2 PUSH3 0x2D9 DUP6 PUSH3 0x16E JUMP JUMPDEST DUP4 ADD DUP3 PUSH3 0x273 JUMP JUMPDEST POP POP JUMPDEST POP POP POP JUMP JUMPDEST PUSH1 0x0 DUP3 DUP3 SHR SWAP1 POP SWAP3 SWAP2 POP POP JUMP JUMPDEST PUSH1 0x0 PUSH3 0x30A PUSH1 0x0 NOT DUP5 PUSH1 0x8 MUL PUSH3 0x2EA JUMP JUMPDEST NOT DUP1 DUP4 AND SWAP2 POP POP SWAP3 SWAP2 POP POP JUMP JUMPDEST PUSH1 0x0 PUSH3 0x325 DUP4 DUP4 PUSH3 0x2F7 JUMP JUMPDEST SWAP2 POP DUP3 PUSH1 0x2 MUL DUP3 OR SWAP1 POP SWAP3 SWAP2 POP POP JUMP JUMPDEST PUSH3 0x340 DUP3 PUSH3 0xBB JUMP JUMPDEST PUSH8 0xFFFFFFFFFFFFFFFF DUP2 GT ISZERO PUSH3 0x35C JUMPI PUSH3 0x35B PUSH3 0xC6 JUMP JUMPDEST JUMPDEST PUSH3 0x368 DUP3 SLOAD PUSH3 0x124 JUMP JUMPDEST PUSH3 0x375 DUP3 DUP3 DUP6 PUSH3 0x29A JUMP JUMPDEST PUSH1 0x0 PUSH1 0x20 SWAP1 POP PUSH1 0x1F DUP4 GT PUSH1 0x1 DUP2 EQ PUSH3 0x3AD JUMPI PUSH1 0x0 DUP5 ISZERO PUSH3 0x398 JUMPI DUP3 DUP8 ADD MLOAD SWAP1 POP JUMPDEST PUSH3 0x3A4 DUP6 DUP3 PUSH3 0x317 JUMP JUMPDEST DUP7 SSTORE POP PUSH3 0x414 JUMP JUMPDEST PUSH1 0x1F NOT DUP5 AND PUSH3 0x3BD DUP7 PUSH3 0x159 JUMP JUMPDEST PUSH1 0x0 JUMPDEST DUP3 DUP2 LT ISZERO PUSH3 0x3E7 JUMPI DUP5 DUP10 ADD MLOAD DUP3 SSTORE PUSH1 0x1 DUP3 ADD SWAP2 POP PUSH1 0x20 DUP6 ADD SWAP5 POP PUSH1 0x20 DUP2 ADD SWAP1 POP PUSH3 0x3C0 JUMP JUMPDEST DUP7 DUP4 LT ISZERO PUSH3 0x407 JUMPI DUP5 DUP10 ADD MLOAD PUSH3 0x403 PUSH1 0x1F DUP10 AND DUP3 PUSH3 0x2F7 JUMP JUMPDEST DUP4 SSTORE POP JUMPDEST PUSH1 0x1 PUSH1 0x2 DUP9 MUL ADD DUP9 SSTORE POP POP POP JUMPDEST POP POP POP POP POP POP JUMP JUMPDEST PUSH2 0x6F5 DUP1 PUSH3 0x42C PUSH1 0x0 CODECOPY PUSH1 0x0 RETURN INVALID PUSH1 0x80 PUSH1 0x40 MSTORE CALLVALUE DUP1 ISZERO PUSH2 0x10 JUMPI PUSH1 0x0 DUP1 REVERT JUMPDEST POP PUSH1 0x4 CALLDATASIZE LT PUSH2 0x36 JUMPI PUSH1 0x0 CALLDATALOAD PUSH1 0xE0 SHR DUP1 PUSH4 0x31AA4BE2 EQ PUSH2 0x3B JUMPI DUP1 PUSH4 0x712F4602 EQ PUSH2 0x57 JUMPI JUMPDEST PUSH1 0x0 DUP1 REVERT JUMPDEST PUSH2 0x55 PUSH1 0x4 DUP1 CALLDATASIZE SUB DUP2 ADD SWAP1 PUSH2 0x50 SWAP2 SWAP1 PUSH2 0x28F JUMP JUMPDEST PUSH2 0x75 JUMP JUMPDEST STOP JUMPDEST PUSH2 0x5F PUSH2 0xA7 JUMP JUMPDEST PUSH1 0x40 MLOAD PUSH2 0x6C SWAP2 SWAP1 PUSH2 0x357 JUMP JUMPDEST PUSH1 0x40 MLOAD DUP1 SWAP2 SUB SWAP1 RETURN JUMPDEST DUP1 PUSH1 0x40 MLOAD PUSH1 0x20 ADD PUSH2 0x86 SWAP2 SWAP1 PUSH2 0x3C0 JUMP JUMPDEST PUSH1 0x40 MLOAD PUSH1 0x20 DUP2 DUP4 SUB SUB DUP2 MSTORE SWAP1 PUSH1 0x40 MSTORE PUSH1 0x0 SWAP1 DUP2 PUSH2 0xA3 SWAP2 SWAP1 PUSH2 0x5ED JUMP JUMPDEST POP POP JUMP JUMPDEST PUSH1 0x0 DUP1 SLOAD PUSH2 0xB4 SWAP1 PUSH2 0x406 JUMP JUMPDEST DUP1 PUSH1 0x1F ADD PUSH1 0x20 DUP1 SWAP2 DIV MUL PUSH1 0x20 ADD PUSH1 0x40 MLOAD SWAP1 DUP2 ADD PUSH1 0x40 MSTORE DUP1 SWAP3 SWAP2 SWAP1 DUP2 DUP2 MSTORE PUSH1 0x20 ADD DUP3 DUP1 SLOAD PUSH2 0xE0 SWAP1 PUSH2 0x406 JUMP JUMPDEST DUP1 ISZERO PUSH2 0x12D JUMPI DUP1 PUSH1 0x1F LT PUSH2 0x102 JUMPI PUSH2 0x100 DUP1 DUP4 SLOAD DIV MUL DUP4 MSTORE SWAP2 PUSH1 0x20 ADD SWAP2 PUSH2 0x12D JUMP JUMPDEST DUP3 ADD SWAP2 SWAP1 PUSH1 0x0 MSTORE PUSH1 0x20 PUSH1 0x0 KECCAK256 SWAP1 JUMPDEST DUP2 SLOAD DUP2 MSTORE SWAP1 PUSH1 0x1 ADD SWAP1 PUSH1 0x20 ADD DUP1 DUP4 GT PUSH2 0x110 JUMPI DUP3 SWAP1 SUB PUSH1 0x1F AND DUP3 ADD SWAP2 JUMPDEST POP POP POP POP POP DUP2 JUMP JUMPDEST PUSH1 0x0 PUSH1 0x40 MLOAD SWAP1 POP SWAP1 JUMP JUMPDEST PUSH1 0x0 DUP1 REVERT JUMPDEST PUSH1 0x0 DUP1 REVERT JUMPDEST PUSH1 0x0 DUP1 REVERT JUMPDEST PUSH1 0x0 DUP1 REVERT JUMPDEST PUSH1 0x0 PUSH1 0x1F NOT PUSH1 0x1F DUP4 ADD AND SWAP1 POP SWAP2 SWAP1 POP JUMP JUMPDEST PUSH32 0x4E487B7100000000000000000000000000000000000000000000000000000000 PUSH1 0x0 MSTORE PUSH1 0x41 PUSH1 0x4 MSTORE PUSH1 0x24 PUSH1 0x0 REVERT JUMPDEST PUSH2 0x19C DUP3 PUSH2 0x153 JUMP JUMPDEST DUP2 ADD DUP2 DUP2 LT PUSH8 0xFFFFFFFFFFFFFFFF DUP3 GT OR ISZERO PUSH2 0x1BB JUMPI PUSH2 0x1BA PUSH2 0x164 JUMP JUMPDEST JUMPDEST DUP1 PUSH1 0x40 MSTORE POP POP POP JUMP JUMPDEST PUSH1 0x0 PUSH2 0x1CE PUSH2 0x135 JUMP JUMPDEST SWAP1 POP PUSH2 0x1DA DUP3 DUP3 PUSH2 0x193 JUMP JUMPDEST SWAP2 SWAP1 POP JUMP JUMPDEST PUSH1 0x0 PUSH8 0xFFFFFFFFFFFFFFFF DUP3 GT ISZERO PUSH2 0x1FA JUMPI PUSH2 0x1F9 PUSH2 0x164 JUMP JUMPDEST JUMPDEST PUSH2 0x203 DUP3 PUSH2 0x153 JUMP JUMPDEST SWAP1 POP PUSH1 0x20 DUP2 ADD SWAP1 POP SWAP2 SWAP1 POP JUMP JUMPDEST DUP3 DUP2 DUP4 CALLDATACOPY PUSH1 0x0 DUP4 DUP4 ADD MSTORE POP POP POP JUMP JUMPDEST PUSH1 0x0 PUSH2 0x232 PUSH2 0x22D DUP5 PUSH2 0x1DF JUMP JUMPDEST PUSH2 0x1C4 JUMP JUMPDEST SWAP1 POP DUP3 DUP2 MSTORE PUSH1 0x20 DUP2 ADD DUP5 DUP5 DUP5 ADD GT ISZERO PUSH2 0x24E JUMPI PUSH2 0x24D PUSH2 0x14E JUMP JUMPDEST JUMPDEST PUSH2 0x259 DUP5 DUP3 DUP6 PUSH2 0x210 JUMP JUMPDEST POP SWAP4 SWAP3 POP POP POP JUMP JUMPDEST PUSH1 0x0 DUP3 PUSH1 0x1F DUP4 ADD SLT PUSH2 0x276 JUMPI PUSH2 0x275 PUSH2 0x149 JUMP JUMPDEST JUMPDEST DUP2 CALLDATALOAD PUSH2 0x286 DUP5 DUP3 PUSH1 0x20 DUP7 ADD PUSH2 0x21F JUMP JUMPDEST SWAP2 POP POP SWAP3 SWAP2 POP POP JUMP JUMPDEST PUSH1 0x0 PUSH1 0x20 DUP3 DUP5 SUB SLT ISZERO PUSH2 0x2A5 JUMPI PUSH2 0x2A4 PUSH2 0x13F JUMP JUMPDEST JUMPDEST PUSH1 0x0 DUP3 ADD CALLDATALOAD PUSH8 0xFFFFFFFFFFFFFFFF DUP2 GT ISZERO PUSH2 0x2C3 JUMPI PUSH2 0x2C2 PUSH2 0x144 JUMP JUMPDEST JUMPDEST PUSH2 0x2CF DUP5 DUP3 DUP6 ADD PUSH2 0x261 JUMP JUMPDEST SWAP2 POP POP SWAP3 SWAP2 POP POP JUMP JUMPDEST PUSH1 0x0 DUP2 MLOAD SWAP1 POP SWAP2 SWAP1 POP JUMP JUMPDEST PUSH1 0x0 DUP3 DUP3 MSTORE PUSH1 0x20 DUP3 ADD SWAP1 POP SWAP3 SWAP2 POP POP JUMP JUMPDEST PUSH1 0x0 JUMPDEST DUP4 DUP2 LT ISZERO PUSH2 0x312 JUMPI DUP1 DUP3 ADD MLOAD DUP2 DUP5 ADD MSTORE PUSH1 0x20 DUP2 ADD SWAP1 POP PUSH2 0x2F7 JUMP JUMPDEST PUSH1 0x0 DUP5 DUP5 ADD MSTORE POP POP POP POP JUMP JUMPDEST PUSH1 0x0 PUSH2 0x329 DUP3 PUSH2 0x2D8 JUMP JUMPDEST PUSH2 0x333 DUP2 DUP6 PUSH2 0x2E3 JUMP JUMPDEST SWAP4 POP PUSH2 0x343 DUP2 DUP6 PUSH1 0x20 DUP7 ADD PUSH2 0x2F4 JUMP JUMPDEST PUSH2 0x34C DUP2 PUSH2 0x153 JUMP JUMPDEST DUP5 ADD SWAP2 POP POP SWAP3 SWAP2 POP POP JUMP JUMPDEST PUSH1 0x0 PUSH1 0x20 DUP3 ADD SWAP1 POP DUP2 DUP2 SUB PUSH1 0x0 DUP4 ADD MSTORE PUSH2 0x371 DUP2 DUP5 PUSH2 0x31E JUMP JUMPDEST SWAP1 POP SWAP3 SWAP2 POP POP JUMP JUMPDEST PUSH1 0x0 DUP2 MLOAD SWAP1 POP SWAP2 SWAP1 POP JUMP JUMPDEST PUSH1 0x0 DUP2 SWAP1 POP SWAP3 SWAP2 POP POP JUMP JUMPDEST PUSH1 0x0 PUSH2 0x39A DUP3 PUSH2 0x379 JUMP JUMPDEST PUSH2 0x3A4 DUP2 DUP6 PUSH2 0x384 JUMP JUMPDEST SWAP4 POP PUSH2 0x3B4 DUP2 DUP6 PUSH1 0x20 DUP7 ADD PUSH2 0x2F4 JUMP JUMPDEST DUP1 DUP5 ADD SWAP2 POP POP SWAP3 SWAP2 POP POP JUMP JUMPDEST PUSH1 0x0 PUSH2 0x3CC DUP3 DUP5 PUSH2 0x38F JUMP JUMPDEST SWAP2 POP DUP2 SWAP1 POP SWAP3 SWAP2 POP POP JUMP JUMPDEST PUSH32 0x4E487B7100000000000000000000000000000000000000000000000000000000 PUSH1 0x0 MSTORE PUSH1 0x22 PUSH1 0x4 MSTORE PUSH1 0x24 PUSH1 0x0 REVERT JUMPDEST PUSH1 0x0 PUSH1 0x2 DUP3 DIV SWAP1 POP PUSH1 0x1 DUP3 AND DUP1 PUSH2 0x41E JUMPI PUSH1 0x7F DUP3 AND SWAP2 POP JUMPDEST PUSH1 0x20 DUP3 LT DUP2 SUB PUSH2 0x431 JUMPI PUSH2 0x430 PUSH2 0x3D7 JUMP JUMPDEST JUMPDEST POP SWAP2 SWAP1 POP JUMP JUMPDEST PUSH1 0x0 DUP2 SWAP1 POP DUP2 PUSH1 0x0 MSTORE PUSH1 0x20 PUSH1 0x0 KECCAK256 SWAP1 POP SWAP2 SWAP1 POP JUMP JUMPDEST PUSH1 0x0 PUSH1 0x20 PUSH1 0x1F DUP4 ADD DIV SWAP1 POP SWAP2 SWAP1 POP JUMP JUMPDEST PUSH1 0x0 DUP3 DUP3 SHL SWAP1 POP SWAP3 SWAP2 POP POP JUMP JUMPDEST PUSH1 0x0 PUSH1 0x8 DUP4 MUL PUSH2 0x499 PUSH32 0xFFFFFFFFFFFFFFFFFFFFFFFFFFFFFFFFFFFFFFFFFFFFFFFFFFFFFFFFFFFFFFFF DUP3 PUSH2 0x45C JUMP JUMPDEST PUSH2 0x4A3 DUP7 DUP4 PUSH2 0x45C JUMP JUMPDEST SWAP6 POP DUP1 NOT DUP5 AND SWAP4 POP DUP1 DUP7 AND DUP5 OR SWAP3 POP POP POP SWAP4 SWAP3 POP POP POP JUMP JUMPDEST PUSH1 0x0 DUP2 SWAP1 POP SWAP2 SWAP1 POP JUMP JUMPDEST PUSH1 0x0 DUP2 SWAP1 POP SWAP2 SWAP1 POP JUMP JUMPDEST PUSH1 0x0 PUSH2 0x4EA PUSH2 0x4E5 PUSH2 0x4E0 DUP5 PUSH2 0x4BB JUMP JUMPDEST PUSH2 0x4C5 JUMP JUMPDEST PUSH2 0x4BB JUMP JUMPDEST SWAP1 POP SWAP2 SWAP1 POP JUMP JUMPDEST PUSH1 0x0 DUP2 SWAP1 POP SWAP2 SWAP1 POP JUMP JUMPDEST PUSH2 0x504 DUP4 PUSH2 0x4CF JUMP JUMPDEST PUSH2 0x518 PUSH2 0x510 DUP3 PUSH2 0x4F1 JUMP JUMPDEST DUP5 DUP5 SLOAD PUSH2 0x469 JUMP JUMPDEST DUP3 SSTORE POP POP POP POP JUMP JUMPDEST PUSH1 0x0 SWAP1 JUMP JUMPDEST PUSH2 0x52D PUSH2 0x520 JUMP JUMPDEST PUSH2 0x538 DUP2 DUP5 DUP5 PUSH2 0x4FB JUMP JUMPDEST POP POP POP JUMP JUMPDEST JUMPDEST DUP2 DUP2 LT ISZERO PUSH2 0x55C JUMPI PUSH2 0x551 PUSH1 0x0 DUP3 PUSH2 0x525 JUMP JUMPDEST PUSH1 0x1 DUP2 ADD SWAP1 POP PUSH2 0x53E JUMP JUMPDEST POP POP JUMP JUMPDEST PUSH1 0x1F DUP3 GT ISZERO PUSH2 0x5A1 JUMPI PUSH2 0x572 DUP2 PUSH2 0x437 JUMP JUMPDEST PUSH2 0x57B DUP5 PUSH2 0x44C JUMP JUMPDEST DUP2 ADD PUSH1 0x20 DUP6 LT ISZERO PUSH2 0x58A JUMPI DUP2 SWAP1 POP JUMPDEST PUSH2 0x59E PUSH2 0x596 DUP6 PUSH2 0x44C JUMP JUMPDEST DUP4 ADD DUP3 PUSH2 0x53D JUMP JUMPDEST POP POP JUMPDEST POP POP POP JUMP JUMPDEST PUSH1 0x0 DUP3 DUP3 SHR SWAP1 POP SWAP3 SWAP2 POP POP JUMP JUMPDEST PUSH1 0x0 PUSH2 0x5C4 PUSH1 0x0 NOT DUP5 PUSH1 0x8 MUL PUSH2 0x5A6 JUMP JUMPDEST NOT DUP1 DUP4 AND SWAP2 POP POP SWAP3 SWAP2 POP POP JUMP JUMPDEST PUSH1 0x0 PUSH2 0x5DD DUP4 DUP4 PUSH2 0x5B3 JUMP JUMPDEST SWAP2 POP DUP3 PUSH1 0x2 MUL DUP3 OR SWAP1 POP SWAP3 SWAP2 POP POP JUMP JUMPDEST PUSH2 0x5F6 DUP3 PUSH2 0x2D8 JUMP JUMPDEST PUSH8 0xFFFFFFFFFFFFFFFF DUP2 GT ISZERO PUSH2 0x60F JUMPI PUSH2 0x60E PUSH2 0x164 JUMP JUMPDEST JUMPDEST PUSH2 0x619 DUP3 SLOAD PUSH2 0x406 JUMP JUMPDEST PUSH2 0x624 DUP3 DUP3 DUP6 PUSH2 0x560 JUMP JUMPDEST PUSH1 0x0 PUSH1 0x20 SWAP1 POP PUSH1 0x1F DUP4 GT PUSH1 0x1 DUP2 EQ PUSH2 0x657 JUMPI PUSH1 0x0 DUP5 ISZERO PUSH2 0x645 JUMPI DUP3 DUP8 ADD MLOAD SWAP1 POP JUMPDEST PUSH2 0x64F DUP6 DUP3 PUSH2 0x5D1 JUMP JUMPDEST DUP7 SSTORE POP PUSH2 0x6B7 JUMP JUMPDEST PUSH1 0x1F NOT DUP5 AND PUSH2 0x665 DUP7 PUSH2 0x437 JUMP JUMPDEST PUSH1 0x0 JUMPDEST DUP3 DUP2 LT ISZERO PUSH2 0x68D JUMPI DUP5 DUP10 ADD MLOAD DUP3 SSTORE PUSH1 0x1 DUP3 ADD SWAP2 POP PUSH1 0x20 DUP6 ADD SWAP5 POP PUSH1 0x20 DUP2 ADD SWAP1 POP PUSH2 0x668 JUMP JUMPDEST DUP7 DUP4 LT ISZERO PUSH2 0x6AA JUMPI DUP5 DUP10 ADD MLOAD PUSH2 0x6A6 PUSH1 0x1F DUP10 AND DUP3 PUSH2 0x5B3 JUMP JUMPDEST DUP4 SSTORE POP JUMPDEST PUSH1 0x1 PUSH1 0x2 DUP9 MUL ADD DUP9 SSTORE POP POP POP JUMPDEST POP POP POP POP POP POP JUMP INVALID LOG2 PUSH5 0x6970667358 0x22 SLT KECCAK256 SLT PUSH14 0x546C34252859AE8792CF2F1EE53B DUP7 LOG1 PUSH15 0x1086911C93CCE44D388C84563A6473 PUSH16 0x6C634300081200330000000000000000 "
				},
				"gasEstimates": {
					"creation": {
						"codeDepositCost": "356200",
						"executionCost": "infinite",
						"totalCost": "infinite"
					},
					"external": {
						"myBytes()": "infinite",
						"updateBytes(string)": "infinite"
					}
				},
				"methodIdentifiers": {
					"myBytes()": "712f4602",
					"updateBytes(string)": "31aa4be2"
				}
			},
			"storageLayout": {
				"storage": [
					{
						"astId": 3,
						"contract": "Bytes.sol:Bytes",
						"label": "myBytes",
						"offset": 0,
						"slot": "0",
						"type": "t_bytes_storage"
					}
				],
				"types": {
					"t_bytes_storage": {
						"encoding": "bytes",
						"label": "bytes",
						"numberOfBytes": "32"
					}
				}
			},
			"userdoc": {
				"kind": "user",
				"methods": {},
				"version": 1
			}
		}
	}
}