{
	"data": {
		"bytecode": {
			"linkReferences": {},
			"object": "608060405234801561001057600080fd5b5061031e806100206000396000f3fe608060405234801561001057600080fd5b50600436106100365760003560e01c8063489f0ffe1461003b5780636537214714610057575b600080fd5b61005560048036038101906100509190610114565b610075565b005b61005f6100d3565b60405161006c9190610163565b60405180910390f35b808261008191906101ad565b600081905550808261009391906101e1565b60008190555080826100a59190610215565b60008190555080826100b79190610286565b60008190555080826100c991906102b7565b6000819055505050565b60005481565b600080fd5b6000819050919050565b6100f1816100de565b81146100fc57600080fd5b50565b60008135905061010e816100e8565b92915050565b6000806040838503121561012b5761012a6100d9565b5b6000610139858286016100ff565b925050602061014a858286016100ff565b9150509250929050565b61015d816100de565b82525050565b60006020820190506101786000830184610154565b92915050565b7f4e487b7100000000000000000000000000000000000000000000000000000000600052601160045260246000fd5b60006101b8826100de565b91506101c3836100de565b92508282019050808211156101db576101da61017e565b5b92915050565b60006101ec826100de565b91506101f7836100de565b925082820390508181111561020f5761020e61017e565b5b92915050565b6000610220826100de565b915061022b836100de565b9250828202610239816100de565b915082820484148315176102505761024f61017e565b5b5092915050565b7f4e487b7100000000000000000000000000000000000000000000000000000000600052601260045260246000fd5b6000610291826100de565b915061029c836100de565b9250826102ac576102ab610257565b5b828204905092915050565b60006102c2826100de565b91506102cd836100de565b9250826102dd576102dc610257565b5b82820690509291505056fea26469706673582212200f9ac6cad670af12d0bba7a1d1ddbfd5882ec505ee80dd43b2168723324e2b6464736f6c63430008120033",
			"opcodes": "PUSH1 0x80 PUSH1 0x40 MSTORE CALLVALUE DUP1 ISZERO PUSH2 0x10 JUMPI PUSH1 0x0 DUP1 REVERT JUMPDEST POP PUSH2 0x31E DUP1 PUSH2 0x20 PUSH1 0x0 CODECOPY PUSH1 0x0 RETURN INVALID PUSH1 0x80 PUSH1 0x40 MSTORE CALLVALUE DUP1 ISZERO PUSH2 0x10 JUMPI PUSH1 0x0 DUP1 REVERT JUMPDEST POP PUSH1 0x4 CALLDATASIZE LT PUSH2 0x36 JUMPI PUSH1 0x0 CALLDATALOAD PUSH1 0xE0 SHR DUP1 PUSH4 0x489F0FFE EQ PUSH2 0x3B JUMPI DUP1 PUSH4 0x65372147 EQ PUSH2 0x57 JUMPI JUMPDEST PUSH1 0x0 DUP1 REVERT JUMPDEST PUSH2 0x55 PUSH1 0x4 DUP1 CALLDATASIZE SUB DUP2 ADD SWAP1 PUSH2 0x50 SWAP2 SWAP1 PUSH2 0x114 JUMP JUMPDEST PUSH2 0x75 JUMP JUMPDEST STOP JUMPDEST PUSH2 0x5F PUSH2 0xD3 JUMP JUMPDEST PUSH1 0x40 MLOAD PUSH2 0x6C SWAP2 SWAP1 PUSH2 0x163 JUMP JUMPDEST PUSH1 0x40 MLOAD DUP1 SWAP2 SUB SWAP1 RETURN JUMPDEST DUP1 DUP3 PUSH2 0x81 SWAP2 SWAP1 PUSH2 0x1AD JUMP JUMPDEST PUSH1 0x0 DUP2 SWAP1 SSTORE POP DUP1 DUP3 PUSH2 0x93 SWAP2 SWAP1 PUSH2 0x1E1 JUMP JUMPDEST PUSH1 0x0 DUP2 SWAP1 SSTORE POP DUP1 DUP3 PUSH2 0xA5 SWAP2 SWAP1 PUSH2 0x215 JUMP JUMPDEST PUSH1 0x0 DUP2 SWAP1 SSTORE POP DUP1 DUP3 PUSH2 0xB7 SWAP2 SWAP1 PUSH2 0x286 JUMP JUMPDEST PUSH1 0x0 DUP2 SWAP1 SSTORE POP DUP1 DUP3 PUSH2 0xC9 SWAP2 SWAP1 PUSH2 0x2B7 JUMP JUMPDEST PUSH1 0x0 DUP2 SWAP1 SSTORE POP POP POP JUMP JUMPDEST PUSH1 0x0 SLOAD DUP2 JUMP JUMPDEST PUSH1 0x0 DUP1 REVERT JUMPDEST PUSH1 0x0 DUP2 SWAP1 POP SWAP2 SWAP1 POP JUMP JUMPDEST PUSH2 0xF1 DUP2 PUSH2 0xDE JUMP JUMPDEST DUP2 EQ PUSH2 0xFC JUMPI PUSH1 0x0 DUP1 REVERT JUMPDEST POP JUMP JUMPDEST PUSH1 0x0 DUP2 CALLDATALOAD SWAP1 POP PUSH2 0x10E DUP2 PUSH2 0xE8 JUMP JUMPDEST SWAP3 SWAP2 POP POP JUMP JUMPDEST PUSH1 0x0 DUP1 PUSH1 0x40 DUP4 DUP6 SUB SLT ISZERO PUSH2 0x12B JUMPI PUSH2 0x12A PUSH2 0xD9 JUMP JUMPDEST JUMPDEST PUSH1 0x0 PUSH2 0x139 DUP6 DUP3 DUP7 ADD PUSH2 0xFF JUMP JUMPDEST SWAP3 POP POP PUSH1 0x20 PUSH2 0x14A DUP6 DUP3 DUP7 ADD PUSH2 0xFF JUMP JUMPDEST SWAP2 POP POP SWAP3 POP SWAP3 SWAP1 POP JUMP JUMPDEST PUSH2 0x15D DUP2 PUSH2 0xDE JUMP JUMPDEST DUP3 MSTORE POP POP JUMP JUMPDEST PUSH1 0x0 PUSH1 0x20 DUP3 ADD SWAP1 POP PUSH2 0x178 PUSH1 0x0 DUP4 ADD DUP5 PUSH2 0x154 JUMP JUMPDEST SWAP3 SWAP2 POP POP JUMP JUMPDEST PUSH32 0x4E487B7100000000000000000000000000000000000000000000000000000000 PUSH1 0x0 MSTORE PUSH1 0x11 PUSH1 0x4 MSTORE PUSH1 0x24 PUSH1 0x0 REVERT JUMPDEST PUSH1 0x0 PUSH2 0x1B8 DUP3 PUSH2 0xDE JUMP JUMPDEST SWAP2 POP PUSH2 0x1C3 DUP4 PUSH2 0xDE JUMP JUMPDEST SWAP3 POP DUP3 DUP3 ADD SWAP1 POP DUP1 DUP3 GT ISZERO PUSH2 0x1DB JUMPI PUSH2 0x1DA PUSH2 0x17E JUMP JUMPDEST JUMPDEST SWAP3 SWAP2 POP POP JUMP JUMPDEST PUSH1 0x0 PUSH2 0x1EC DUP3 PUSH2 0xDE JUMP JUMPDEST SWAP2 POP PUSH2 0x1F7 DUP4 PUSH2 0xDE JUMP JUMPDEST SWAP3 POP DUP3 DUP3 SUB SWAP1 POP DUP2 DUP2 GT ISZERO PUSH2 0x20F JUMPI PUSH2 0x20E PUSH2 0x17E JUMP JUMPDEST JUMPDEST SWAP3 SWAP2 POP POP JUMP JUMPDEST PUSH1 0x0 PUSH2 0x220 DUP3 PUSH2 0xDE JUMP JUMPDEST SWAP2 POP PUSH2 0x22B DUP4 PUSH2 0xDE JUMP JUMPDEST SWAP3 POP DUP3 DUP3 MUL PUSH2 0x239 DUP2 PUSH2 0xDE JUMP JUMPDEST SWAP2 POP DUP3 DUP3 DIV DUP5 EQ DUP4 ISZERO OR PUSH2 0x250 JUMPI PUSH2 0x24F PUSH2 0x17E JUMP JUMPDEST JUMPDEST POP SWAP3 SWAP2 POP POP JUMP JUMPDEST PUSH32 0x4E487B7100000000000000000000000000000000000000000000000000000000 PUSH1 0x0 MSTORE PUSH1 0x12 PUSH1 0x4 MSTORE PUSH1 0x24 PUSH1 0x0 REVERT JUMPDEST PUSH1 0x0 PUSH2 0x291 DUP3 PUSH2 0xDE JUMP JUMPDEST SWAP2 POP PUSH2 0x29C DUP4 PUSH2 0xDE JUMP JUMPDEST SWAP3 POP DUP3 PUSH2 0x2AC JUMPI PUSH2 0x2AB PUSH2 0x257 JUMP JUMPDEST JUMPDEST DUP3 DUP3 DIV SWAP1 POP SWAP3 SWAP2 POP POP JUMP JUMPDEST PUSH1 0x0 PUSH2 0x2C2 DUP3 PUSH2 0xDE JUMP JUMPDEST SWAP2 POP PUSH2 0x2CD DUP4 PUSH2 0xDE JUMP JUMPDEST SWAP3 POP DUP3 PUSH2 0x2DD JUMPI PUSH2 0x2DC PUSH2 0x257 JUMP JUMPDEST JUMPDEST DUP3 DUP3 MOD SWAP1 POP SWAP3 SWAP2 POP POP JUMP INVALID LOG2 PUSH5 0x6970667358 0x22 SLT KECCAK256 0xF SWAP11 0xC6 0xCA 0xD6 PUSH17 0xAF12D0BBA7A1D1DDBFD5882EC505EE80DD NUMBER 0xB2 AND DUP8 0x23 ORIGIN 0x4E 0x2B PUSH5 0x64736F6C63 NUMBER STOP ADDMOD SLT STOP CALLER "
		},
		"gasEstimates": {
			"creation": {
				"codeDepositCost": "159600",
				"executionCost": "202",
				"totalCost": "159802"
			},
			"external": {
				"performCalculations(uint256,uint256)": "infinite",
				"result()": "2429"
			}
		},
		"methodIdentifiers": {
			"performCalculations(uint256,uint256)": "489f0ffe",
			"result()": "65372147"
		}
	},
	"abi": [
		{
			"inputs": [
				{
					"internalType": "uint256",
					"name": "a",
					"type": "uint256"
				},
				{
					"internalType": "uint256",
					"name": "b",
					"type": "uint256"
				}
			],
			"name": "performCalculations",
			"outputs": [],
			"stateMutability": "nonpayable",
			"type": "function"
		},
		{
			"inputs": [],
			"name": "result",
			"outputs": [
				{
					"internalType": "uint256",
					"name": "",
					"type": "uint256"
				}
			],
			"stateMutability": "view",
			"type": "function"
		}
	]
}